:020000040800F2
:10000000185E00205D0200082D640008015B0008F6
:1000100029640008CD2B0008D980000800000000EA
:100020000000000000000000000000009D0100082A
:100030002B2D000800000000F90100086D76000873
:1000400077020008770200087702000877020008AC
:10005000770200087702000877020008770200089C
:10006000770200087702000877020008D12B000809
:10007000E12B0008770200087702000877020008E9
:10008000F12B0008770200087702000877020008C9
:10009000770200087702000877020008770200085C
:1000A00077020008717700087702000877020008DD
:1000B000770200087702000877020008770200083C
:1000C000770200087702000877020008770200082C
:1000D0007702000877020008770200086D800008A8
:1000E0002D2D00087702000877020008770200082B
:1000F00077020008770200087702000877020008FC
:1001000077020008770200087702000877020008EB
:1001100077020008770200087702000877020008DB
:100120007702000877020008012C00087702000817
:10013000112C0008770200087702000877020008F7
:1001400077020008770200087702000877020008AB
:10015000770200087702000877020008770200089B
:10016000770200087702000877020008770200088B
:1001700077020008770200087702000800000000FC
:100180007702000877020008DFF80CD000F0ECFDE1
:1001900000480047D1820008185E00202C4B1968E7
:1001A0000868B0E8F04F80F30988BFF36F8F4FF015
:1001B000000080F3118870470000000008480068C4
:1001C000006880F308884FF0000080F3148862B65E
:1001D00061B6BFF34F8FBFF36F8F00DF00BF00BF6B
:1001E00008ED00E0DFF80C00016841F470010160E7
:1001F000704700BF88ED00E0EFF30980BFF36F8F19
:10020000134B1A681EF0100F08BF20ED108A20E96A
:10021000F04F106009B44FF0500080F31188BFF325
:100220004F8FBFF36F8F09F007FA4FF0000080F394
:10023000118809BC19680868B0E8F04F1EF0100F6B
:1002400008BFB0EC108A80F30988BFF36F8F704746
:10025000A4000020EFF305807047000006488047A7
:1002600006480047FEE7FEE7FEE7FEE7FEE7FEE79B
:10027000FEE7FEE7FEE7FEE7557700088901000884
:100280000E4B0F49002270B51C680A8013464EF6CB
:1002900061262589AD0709D572B9207300BF00BF5B
:1002A000084B1B780BB100BF00BF70BD01339BB280
:1002B000B3424FF00102ECD10B80EEE70C4E002070
:1002C000104E0020124E0020164A30B5164C12680F
:1002D000002323804EF661251189090603D4118974
:1002E00001F4C05119B101339BB2AB42F4D113896F
:1002F00013F041030BD11073238019464EF661258C
:100300001089C00705D553B99089C0B230BD938913
:10031000EDE7013189B2A9424FF00103F0D121800C
:10032000F2E700BF0C4E0020104E002010B5002058
:1003300005F00CFC0420FFF7A3FF0020FFF7C4FF2B
:100340000446012005F002FC204610BD10B504460D
:10035000002005F0FBFB0120FFF792FF2046FFF78E
:10036000B3FF0120BDE8104005F0F0BBF8B506462C
:100370000124FFF7DBFFB440E44364B204EA000366
:10038000DBB2984205461CD04FF47A76FFF7CEFFD9
:10039000A842074607D0013E0220B6B205F0FAFB9C
:1003A0003D46002EF2D104EA0500C0B2854208D0D5
:1003B00000F0FB00FFF7CAFF0A20BDE8F84005F097
:1003C000E9BBF8BD2DE9F04106460124FFF7AEFF79
:1003D000B44064B244EA0003DBB29842074603D15A
:1003E000022E01D0052E23D14FF47A75FFF79EFF20
:1003F000B842804607D0013D0220ADB205F0CAFBED
:100400004746002DF2D144EA0700C0B2874206D128
:10041000022E06D0052E0BD100F0FB0001E0022ECB
:10042000FAD1FFF793FF0A20BDE8F04105F0B2BB17
:10043000BDE8F08170B5064671B3202928BF2021A0
:1004400000200C4605F082FB0220FFF719FF002078
:10045000FFF716FF354615F8010BFFF711FFAB1B31
:10046000DBB29C42F7D80D4B0D491C6800220A8074
:1004700013464EF661252089000605D452B90120A5
:10048000BDE8704005F062BB01339BB2AB424FF058
:100490000102F0D10B80F2E770BD00BF0C4E0020CE
:1004A000104E002038B5044646F2A815FFF73EFF6F
:1004B000FF2801D0C3070FD4022005F06BFB681E94
:1004C00085B2002DF2D14CB1FFF730FF000240F0B1
:1004D00010002080284638BD0120FCE72046FAE7BE
:1004E00038B5044646F2A815FFF720FFFF2801D0D3
:1004F00083070DD5022005F04DFB013DF4D14CB131
:10050000FFF714FF000240F011002080284638BD9C
:100510000120FCE72046FAE7202970B528BF2021FA
:10052000064600200D4605F011FB0320FFF7A8FE4C
:100530000020FFF7C9FE3446A31BDBB2AB4204D355
:10054000012005F003FB284670BD0020FFF7BCFE2C
:1005500004F8010BF0E700231B68FFDE70B50024F0
:10056000114D2646E2B2AB5C533B012B98BFAE5413
:10057000835C533B012B98BF8654A956835641B1E7
:100580001BB1994204F10104ECD0994204DD012031
:1005900007E0002BFBDB05D08B42D4BF01204FF0DE
:1005A000FF3070BD1846FCE70E01002010B50C4668
:1005B000FFF7D4FF002808DA2CB1FFF7B7FE0002DE
:1005C00040F077002080012000E0002010BD2DE9E0
:1005D000F843089C0778054690469946FFF72AFF9E
:1005E0000A2005F0D7FA4FF6FF7608F1FF381FFA18
:1005F00088F8B04506D12046FFF772FF78B9002091
:10060000BDE8F883FA2005F0C5FAFA2005F0C2FA31
:10061000FA2005F0BFFAFA2005F0BCFAE5E74FF43E
:100620007A7606FB09F64CF250334FF00009B6FB20
:10063000F3F601361FFA89F39E42E0D946F2A81874
:10064000FFF774FE8038C0B27E2821D80CB1002399
:10065000238020212846FFF75FFF0A2005F09AFA41
:100660000720FFF783FE697800231A46481C5E1CAA
:100670009BB2984225DA29448B78934226D0002CED
:10068000BDD0FFF753FE000240F030002080B6E7F7
:1006900008F1FF3802201FFA88F805F07BFAB8F15C
:1006A000000FCDD154B1FFF741FE0002208002209F
:1006B00005F070FA238843F01603238009F101093D
:1006C000B8E7EB5C1A44D2B23346D0E72B7823F07C
:1006D0008003BB420BD0362F01D1252B07D0002C35
:1006E0008DD0FFF723FE000240F03100CEE700215D
:1006F0001148FFF75BFFE8B9AB78782B1AD1002CD3
:100700003FF47DAFFFF712FE000280B22080EB784D
:10071000032B0CD8DFE803F00E02050840F045007B
:10072000B4E740F04600B1E740F04700AEE740F0E4
:100730004800ABE7012063E70EA9000830B5044686
:100740008FB00D4609B100230B802846FFF7AAFEA3
:1007500000283BD00720FFF709FE0120FFF732FEFB
:1007600042231B488DF818308DF81A40002306AC40
:10077000E218195CD1700133102BF9D1154A1068B9
:100780005168127A03AB03C31A7000238DF8153039
:1007900003A8E218C15CD17401330A2BF9D11B23E1
:1007A00000228DF819301346A15C01320B441D2A3A
:1007B000DBB2F9D18DF83530002300951A461E21A1
:1007C0002046FFF704FF003018BF01200FB030BDF6
:1007D000B6A80008ACA800081FB500230293044681
:1007E0000393029BA34208D34120FFF7AFFD0A20E9
:1007F00005F0D0F9039804B010BD029B03F0DA03B2
:1008000043F001038DF806309DF80600FFF79EFDCA
:100810000A2005F0BFF9FFF789FD8DF805009DF866
:1008200005209DF806309A42039B0BBF0133DBB2D3
:1008300003938DF80730029B01330293D1E71FB574
:1008400002930023CDE9003300F0A0FA05B05DF873
:1008500004FB2DE9FF410B9C05460E460B48214643
:1008600017469846FFF7A2FE68B9BDF828300294F3
:10087000CDE900833A4601233146284600F086FA46
:1008800004B0BDE8F0810020FAE700BF06A9000827
:100890002DE9FF410B9C05460E46174698460CB1C4
:1008A0000023238021460A48FFF780FE68B9BDF87F
:1008B00028300294CDE900833A4601233146284688
:1008C00000F064FA04B0BDE8F0810020FAE700BF50
:1008D000C6A8000870B505468AB00E4614460AB18F
:1008E000002313802046FFF7DDFDD8B10720FFF776
:1008F0003DFD0120FFF766FD40F21623ADF80830FC
:100900008DF80B60002318368DF80A50009435449A
:100910001A46052102A88DF80C50FFF758FE00304A
:1009200018BF01200AB070BD2DE9F05F0546002018
:1009300092469B4688460646814640241BE0284650
:1009400041464746224600F06BF953465A46C01AC4
:10095000914110D311461846224600F052F92D1A43
:1009600067EB01084F4622460120002100F049F9BB
:1009700017EB00094E41201EA4F10104DFDC4846BC
:1009800031462A464346BDE8F09F40EA01039B07F3
:1009900003D009E008C9121F08C0042AFAD203E0F4
:1009A00011F8013B00F8013B521EF9D27047D2B258
:1009B00001E000F8012B491EFBD270470022F6E748
:1009C00010B513460A4604461946FFF7F0FF2046C5
:1009D00010BD10B5002200E0521C835C8C5CA34269
:1009E00001D1002BF8D1D8B2E1B2401A10BD2DE9E7
:1009F000FE4F81EA030404F0004421F0004100941A
:100A00004FF0000B23F0004350EA01045ED052EA9D
:100A100003045BD0C3F30A54C1F30A552C44A4F277
:100A2000F3340194A0FB0254C1F3130141F480118B
:100A3000C3F3130343F4801301FB024400FB034E92
:100A4000840A970A44EA815447EA8357A4FB07685B
:100A500002958D0A05FB07854FEA932C04FB0C5485
:100A60002705029D4FEA065847EA1637B5EB0805F9
:100A70006EEB070C870E920E47EA811742EA83124B
:100A8000A7FB0201B6EB0B0164EB00042B0D43EA5C
:100A90000C335E1844EB1C50DA465146E7FB02016A
:100AA000C5F313044FEA0B3343EA14534FEA0432FD
:100AB000019C43EA0603A4F10C040294009CCDE9D6
:100AC00000B400F003F903B0BDE8F08F0020014648
:100AD000F9E72DE9F04D81EA030404F0004B21F021
:100AE000004514464FF0000A23F0004150EA050289
:100AF00020D054EA01021DD0C5F30A570246C5F3BF
:100B00001303C1F31300C1F30A5640F4801543F4F4
:100B10008013A7EB0608101BD64608F2FD3873EBCE
:100B2000050002D308F1010801E092185B41B8F119
:100B3000000F03DA00200146BDE8F08D00204FF4DD
:100B40008011064684460EE0171B73EB050705D39C
:100B5000121B63EB050306434CEA010C49084FEAFC
:100B6000300092185B4150EA0107EDD152EA0300D0
:100B700012D082EA040083EA0501084305D0101B65
:100B8000AB4106D20122002306E000224FF00043D1
:100B900002E06FF0010253101AEB06004CEB085113
:100BA00010EB0A0041EB0B01BDE8F04D00F07FB8FF
:100BB0000EB540F2334102910021CDE900110A4601
:100BC0000B4600F083F803B000BD01F0004330B4E1
:100BD00021F0004150EA010206D00A0DA2F5607230
:100BE000C1F31301002A02DC30BC00207047440F1F
:100BF00044EAC104C100E01830BC00EBC25000F070
:100C00001FB8202A04DB203A00FA02F100207047C6
:100C10009140C2F1200320FA03F31943904070473A
:100C2000202A04DB203A21FA02F00021704721FA41
:100C300002F3D040C2F120029140084319467047A8
:100C40000029A8BF7047401C490008BF20F00100E0
:100C5000704710B4B0FA80FC00FA0CF050EA0104BE
:100C600004BF10BC704749B1CCF1200421FA04F450
:100C700011FA0CF118BF012121430843A3EB0C0129
:100C8000CB1D4FEA00614FEA102042BF002010BC8C
:100C9000704700EBC35010440029A4BF10BC70473C
:100CA000401C490008BF20F0010010BC704710B57F
:100CB000141E73F1000408DA401C41F1000192187F
:100CC0005B411A4301D120F0010010BD2DE9F04D28
:100CD00092469B4611B1B1FA81F202E0B0FA80F27D
:100CE00020329046FFF78DFF04460F4640EA0A0087
:100CF00041EA0B0153465A46084313D0114653EAC2
:100D0000010019D0C8F140025046FFF789FF05469F
:100D10000E46504659464246FFF773FF084305D03A
:100D2000012004E020463946BDE8F08D002005434F
:100D300046EAE0762C4337430A986305E40AA0EBC1
:100D400008000022FD0A44EA47540A3002D5002078
:100D50000146E9E7010510196941DDE90845001977
:100D60006941BDE8F04DA2E7064C074D06E0E0689A
:100D700040F0010394E8070098471034AC42F6D3E2
:100D8000FFF706FA28A9000848A900082DE9F04F46
:100D900091B00DF110081C9C02900E469346002164
:100DA0001022404699461A9FBDF86C50FFF708FE86
:100DB0000CB10023238026B90025284611B0BDE8D8
:100DC000F08FB9F1010F13D1A048FFF7C7FB00283E
:100DD0003ADA0023F95608F803109AB219B1013330
:100DE000102BF7D11A4610AB1A44002302F8303CFE
:100DF0002046FFF757FB80BB00250220FFF7E2FAF1
:100E0000022004F0C7FE0724FFF790FAFF2801D064
:100E1000430709D4013C0220A4B204F0BBFE002C1D
:100E2000F2D10220FFF7CEFAB542C6D3B6F5807FE5
:100E3000C3D8F92E00F20881142004F0ABFEF04371
:100E4000C0B204F0A7FEB8E7234614223946404654
:100E500000F07EFF0028CBD1AEE7FFF767FA00F085
:100E60007B0343F00203984282461AD04FF47A770C
:100E7000FFF75CFA5045039008D0022004F08AFE88
:100E80007B1E039A9FB29246002FF1D10AF07B009D
:100E900040F00200504504D0FFF758FA0A2004F051
:100EA00079FE4FF48063ADF82030B9F1010F4FEABD
:100EB00016238DF823308DF822B08DF824604FF082
:100EC000000331D08DF825309DF82100002101303C
:100ED0000A468BB2984210AD01F101012B4444DA6D
:100EE00003F8202C9DF821100094033100231A46AA
:100EF000C9B208A8FFF76BFB00283FF47DAF9DF84F
:100F00002250002D7FD01CB1FFF710FA0002208084
:100F10009DF82230F73B082B6ED8DFE803F0665FC0
:100F200058514A433C342B008DF8259018F9031092
:100F30009AB279B9931D9BB208A900209AB2152ADA
:100F400010D92B0A8DF8363016238DF837508DF8CE
:100F50002130B9E708AA1A440133102B9171E5D169
:100F60001A46E7E758540133E8E713F8203C1A44DF
:100F7000D2B2AEE71CB1238843F012032380C8200D
:100F800004F008FE38E7002C3FF436AF238843F026
:100F90001303238030E7002C3FF42EAF238843F067
:100FA0001403F6E7002C3FF427AF238843F0150322
:100FB000EFE7002C3FF420AF238843F01803E8E765
:100FC000002C3FF419AF238843F01903E1E7002C0C
:100FD0003FF412AF238843F01A03DAE7002C3FF402
:100FE0000BAF238843F01B03D3E7002C3FF404AF7F
:100FF000238843F01C03CCE7002C3FF4FDAE23888C
:1010000043F01F03C5E70B2004F0C4FDB542BFF455
:10101000F4AEA6EB0508B8F1200F029BD4BF1FFA6F
:1010200088F84FF0200858195FFA88F1FFF702FAA4
:101030000B2004F0AFFD2046FFF752FA00283FF4E2
:10104000DCAE4544ADB2E1E70A20FAE6CEA80008DE
:101050002DE9F0478AB0164607468846202200212F
:1010600002A89946DDE9125A149CFFF7A9FC0EB1BB
:10107000002333700CB1002323802046FFF712FABF
:1010800018B900200AB0BDE8F0870720FFF76EF915
:101090000120FFF797F940F22F23ADF808308DF8C3
:1010A0000B80002308F131088DF80A700094474442
:1010B0001A46052102A88DF80C70FFF788FA00285F
:1010C000DFD09DF80C30ABB1002CDAD0FFF72EF951
:1010D0009DF80C30000280B2FF2B208003D140F03D
:1010E0005A002080CDE7FE2B0CBF40F05B0040F0A3
:1010F0003500F6E716B19DF80D3033705DB19DF8FF
:101100000E302B709DF80F306B709DF81030AB7067
:101110009DF81130EB70BAF1000F07D09DF8122046
:101120009DF8133003EB0223AAF80030B9F1000F49
:1011300003D09DF8143089F800300120A2E72DE992
:10114000F0418EB00546149C0F46164698460CB1E9
:101150000023238000230294CDE900330DF1170210
:101160000DF11601384600F064FB00287AD09DF896
:101170001630022B6FD853B19DF81720002A6AD081
:101180003DB9012B56D1062A03D1572564E0002D25
:10119000FBD02046FFF786F9002863D00720FFF731
:1011A000E5F80120FFF70EF9002D0CBF1A231923D3
:1011B0008DF8183001238DF819308DF81A70A6B10A
:1011C00033788DF81B3073788DF81C30B3788DF838
:1011D0001D30F3788DF81E304FEA18238DF81F303C
:1011E00007238DF820808DF819309DF81900002212
:1011F000013011460B46984201F101010EADC9B212
:101200002B4431DA03F8202C002300941A4606A858
:10121000FFF7DDF930B39DF81A3053B3F42B28D023
:1012200004B3FFF783F89DF81A30C3F1800343EA53
:10123000002016E00EAA2B4602F8205D2946CDE9D3
:10124000015400953846FFF703FFB0B19DF8183000
:10125000002B9ED199E7542524B1FFF767F845EAA2
:1012600000202080002008E013F8203C1A44D2B26D
:10127000C0E79DF816301BB901200EB0BDE8F08123
:101280000824FA20013C04F085FC14F0FF04F8D196
:10129000F2E700002DE9F0478AB0DDE912758246D9
:1012A0008946144698460DB100232B8029463748BD
:1012B000FFF77CF9064620B1002630460AB0BDE8AB
:1012C000F0872846FFF7EEF80028F5D00720FFF753
:1012D0004DF80120FFF776F84FF40B73ADF80830A6
:1012E0008DF80AA08DF80B904CB13A783346DCB2F9
:1012F000A24226D89DF8093023448DF809300023F6
:101300001946E01C8AB2824201F1010123DD0AAADA
:101310002244611D02F81C3C002300951A46C9B204
:1013200002A8FFF754F90028C7D09DF80A30D3B1BE
:10133000002DC2D0FEF7FAFF000240F040002880E6
:10134000BBE702A91944013398F80000C8701B2BB1
:10135000CDD11C46CEE70DF1280C624412F8202CAA
:101360001344DBB2CEE79DF80B203A7039789AB27D
:10137000914201D9032B01D101269EE702AA1A440A
:10138000127908F803200133F0E700BF06A900082E
:101390002DE9F0438BB00746139C0E469046002182
:1013A000202202A81D46FFF70BFB0CB1002323806F
:1013B00021463348FFF7FAF8814620B10025284638
:1013C0000BB0BDE8F0832046FFF76CF80028F5D09D
:1013D0000720FEF7CBFF0120FEF7F4FF1B2D2B4665
:1013E00028BF1B239A1C8DF809209DF848208DF8F2
:1013F0000A208DF808708DF80B604A469BB291B2B6
:101400008B4207D902A9114418F802000871013271
:101410001B2AF4D19DF809200021013204E013F8C1
:10142000203C99445FFA89F98BB29A420AA801F1EB
:1014300001010344F3DA282F03F8209C1AD1FF2E70
:101440000CBF4FF47A720A2200940023C9B202A89A
:10145000FFF7BDF80028B1D09DF80A506DB9002CF7
:10146000ACD0FEF763FF9DF80A30803343EA0020DA
:101470002080A4E74FF47A72E6E701259FE700BFDA
:10148000D6A800082DE9F04F8BB00546189E9DF8B0
:101490005070BDF85480BDF858900C46934600211A
:1014A000202202A89A46FFF78BFA0EB10023338060
:1014B0003046FEF7F7FF18B900200BB0BDE8F08FFB
:1014C0000720FEF753FF0120FEF77CFF4FEA1923A8
:1014D0008DF80A304FEA18238DF80C308DF808B0DB
:1014E0008DF80B908DF80D808DF80E700023B9B239
:1014F0009AB2914231D87B1D00218DF809300A46FD
:1015000006378BB29F420AA801F1010103442BDA8E
:1015100003F8202C9DF85C309DF8091000961E2BD6
:1015200028BF1E23C3EB431203EB8203DB0003310E
:101530009BB20022C9B202A8FFF749F80028BBD02D
:101540009DF80A30002BB7D19DF809202270217830
:101550009AB291420DD80120AFE702AA1A441AF8B4
:101560000300D0710133C3E713F8203C1A44D2B210
:10157000C7E702AA1A449278EA540133E7E7000069
:10158000F7B52F4B2F4E0C4620F48061994215463B
:101590002D4B30604FF00002019208BF01221A70FB
:1015A0000DB100232B800388284F03F038030193EB
:1015B000018821F038010904090C0180038843F0F7
:1015C00010030380018821F001010904090CBC42C9
:1015D000018029462CD90120FFF7B0F828B33068E4
:1015E000018821F038010904090C0180019B02885F
:1015F00013439BB2BC4203801CD8FA2004F0CAFA01
:10160000FA2004F0C7FAFA2004F0C4FAFA2004F031
:10161000C1FA00212B460E4A084600F034F820B1EA
:101620000C48FEF79BFF012000E0002003B0F0BD56
:101630000220D1E7038843F001030380DDE700BF08
:10164000003800400C4E0020124E0020FF2C3101CB
:101650000E010020FEA8000813B5049CCDE900345B
:1016600013460A4601462820FFF792FE02B010BD3D
:1016700007B5002300911A4601460120FFF75FFDE0
:1016800003B05DF804FBF0B58BB007460E46154677
:101690001C462022002102A8FFF792F90CB100237A
:1016A00023802046FEF7FEFE10B900200BB0F0BDEF
:1016B0000720FEF75BFE0120FEF784FE1F23ADF836
:1016C00008308DF80A30002300941A46032102A83E
:1016D000FEF77DFF0028E8D077B19DF80A309DF82D
:1016E0000B2002EB03229DF80C3003EB02229DF845
:1016F0000D3003EB02233B6016B19DF80E303370C2
:1017000045B19DF80F20002391B298B2884203D3CF
:101710000023AB540120C9E702A81844007AE8541A
:101720000133F2E730B505468BB00C4609B1002312
:101730000B802046FEF7B6FEB0B10720FEF716FE7E
:101740000120FEF73FFE1023ADF808308DF80A3077
:10175000002300941A46032102A8FEF738FF18B1AF
:101760009DF80A302B7001200BB030BD30B58BB026
:101770000C4605462022002102A8FFF721F90CB1F2
:10178000002323802046FEF78DFE10B900200BB009
:1017900030BD0720FEF7EAFD0120FEF713FE1223FD
:1017A000ADF808308DF80A30002300941A46032162
:1017B00002A8FEF70CFF0028E8D09DF80A302B7035
:1017C0000120E4E730B58BB00C460546202200210D
:1017D00002A8FFF7F5F80CB1002323802046FEF79E
:1017E00061FE10B900200BB030BD0720FEF7BEFD32
:1017F0000120FEF7E7FD1123ADF808308DF80A301F
:10180000002300941A46032102A8FEF7E0FE0028F8
:10181000E8D00DF109026B1E05F10E0012F8011F50
:1018200003F8011F09B19842F8D10023EB7301209E
:10183000D9E72DE9F0478AB08046149F0E46154639
:101840000021202202A89A46DDE91249FFF7B8F8E4
:101850000FB100233B803846FEF724FE18B9002064
:101860000AB0BDE8F0870720FEF780FD0120FEF7F3
:10187000A9FD4FF48A73ADF8083000238DF80A8073
:10188000009708F115081A46042102A88DF80B806C
:10189000FEF79DFE0028E2D09DF80B3043B10EB15B
:1018A000002333700DB90120DAE700232B70FAE72B
:1018B00016B19DF80C30337015B19DF80D302B70BA
:1018C000BAF1000F07D09DF80E209DF80F3003EB02
:1018D0000223AAF8003064B10DF10F02631E04F177
:1018E0000F0112F8010F03F8010F8B42F9D1002309
:1018F000E373B9F1000FD6D09DF821209DF8223076
:1019000003EB0223A9F80030CDE72DE9F04188B0C0
:101910001D4603AB06460C4618469046002112228F
:101920000E9FFFF74DF803462CB90DF10B02009204
:101930000197224613E00022A15619B199540132B1
:101940000F2AF9D14FEA18228DF81C2008AA12217B
:1019500002F8151D8DF81D80CDE900270122022116
:101960003046FFF797FC30B19DF80C209DF80D3004
:1019700003EB02232B8008B0BDE8F0811FB50DF109
:101980000F030192009300220B460321FFF782FC14
:1019900005B05DF804FB00002DE9F0438DB08046F2
:1019A000CA48149C0D4617461E46FEF7D7FD002870
:1019B00000F39B800DF11009202200214846FEF71C
:1019C000FFFF0CB1002323802046FEF76BFD08B912
:1019D000002551E00720FEF7C9FC0120FEF7F2FCCC
:1019E00041F62253ADF81030002318F803202AB135
:1019F00009EB030101330D2B8A70F6D100238DF81A
:101A00001F30EA5C2AB109EB030101330D2B0A7484
:101A1000F7D100238DF82D308DF82E701A4619F865
:101A2000031001330A441F2BD2B2F8D100238DF8E2
:101A30002F2000941A4620214846FEF7C8FD0028B2
:101A4000C6D09DF812506DB106EB86064FF0000827
:101A5000B04515D1002CBBD0FEF768FC000240F069
:101A600032001BE1002CB3D0FEF760FC9DF8123071
:101A7000803343EA0020208028460DB0BDE8F08383
:101A8000C827FA2004F086F8FA2004F083F8013F12
:101A9000FA2004F07FF8BFB2FA2004F07BF8002FA0
:101AA000EFD121460DF10F00FFF760FE012805463A
:101AB0000BD19DF80F30042B00F0FE8008D8022BCC
:101AC00000F0E480032B00F0EE8008F10108BFE78E
:101AD000052BD1D0FF2BF8D1002C3FF479AFFEF7C6
:101AE00025FC000240F04C00D8E07948FEF736FDB6
:101AF00000280ADC7748FEF731FD002805DB204688
:101B000000F0EAF8FA2004F045F8B8F1000F3BD1F4
:101B1000002200943B461146FF20FFF79DFD002860
:101B20003FF456AF06EB8609A9F1070906EB8606D6
:101B30004FF0000846458DD0C827FA2004F02AF857
:101B4000FA2004F027F8013FFA2004F023F8BFB28E
:101B5000FA2004F01FF8002FEFD1214604A8FFF768
:101B600005FE012805460CD19DF81030042B00F02D
:101B7000A38000F28480022B00F08880032B00F009
:101B80008F8008F10108D5E708F120014346A3EB57
:101B9000080213F8019BD2B2B9F1000F07D08B42B3
:101BA000F5D120221B3A5FFA82F91B2201E01A2AA2
:101BB000F8D80023009441461846FFF74DFD002851
:101BC0003FF406AFB9F1000F13D1002DA0D005F1FD
:101BD00040012B465A1B13F8018BD2B2B8F1000F0B
:101BE00012D09942F6D140221B3A5FFA82F81B22AA
:101BF0000CE0009400234A4608F11B011020FFF777
:101C00002BFD0028E1D1E3E61A2AEDD80094002349
:101C100029460120FFF720FD00283FF4D9AEB8F196
:101C2000000F3FF475AFB8F11A0F82BFA8F11B0285
:101C30004FF01B085FFA82F900944FF00003424610
:101C400005F11B014FF0200098BF4FF00009FFF78E
:101C500003FD00283FF4BCAEB9F1000F3FF458AFCC
:101C60004A46092A28BF09220094002305F13601BB
:101C70002120FFF7F1FC00287FF44AAFA8E6052BEE
:101C80003FF4FAAEFF2B3FF427AF7AE7002C3FF486
:101C90009FAEFEF74BFB000240F04B00208097E622
:101CA000C1453FF76EAF002C3FF492AEFEF73EFB0E
:101CB000000240F04A00F1E7002C3FF489AEFEF745
:101CC00035FB000240F04D00E8E700BFEEA8000839
:101CD000F6A800080EA9000830B58BB00446002114
:101CE000202202A8FEF76CFE21461848FEF75EFC93
:101CF00018B1002528460BB030BD04B12080204625
:101D0000FEF7D0FB0028F4D00720FEF72FFB0120C0
:101D1000FEF758FB2023ADF808308DF80A30002379
:101D200000941A46032102A8FEF751FC0028E0D0D7
:101D30009DF80A5045B9002CDBD0FEF7F7FA0002F7
:101D400040F04E002080D5E70125D3E70EA900081A
:101D50002DE9F04F99B007468A4616460021142215
:101D60000BA81C46FEF72CFE00238DF81B30BAF1A1
:101D7000000F0CD124B90025284619B0BDE8F08F1A
:101D8000FEF7D4FA000240F04F002080F3E70AF596
:101D900080725346A3EB0A0813F9011B1FFA88F857
:101DA00019B19342F6D14FF4807808F1FF33FE2B3E
:101DB000E0D8B8F11B0F2FD82022002110A8FEF781
:101DC000FFFD002C60D121468548FEF7EFFB05465C
:101DD0000028D0D1834B07AA03F110089646186853
:101DE00059689446ACE80300083343456246F6D18F
:101DF00000231AF903101EF90320914240F09A8043
:101E00000133102BF5D100231EF80320FA540133BF
:101E1000102BF9D10125AFE721467348FEF7C6FB29
:101E20000028C9D104B120804FF0000BA8EB0B09AA
:101E3000B9F1170FD4BF5FFA89F94FF01809CDE94E
:101E40000364CDE901B8CDF800900AEB0B0336220C
:101E50000DF11B010BA8FFF715FB0546002850D11B
:101E6000002C88D0FEF762FA9DF82C30000280B278
:101E7000FC2B20803CD02ED89C2B3FD001D3FA2BBA
:101E800039D240F03D002BE0002323809BE712F87D
:101E9000202C1344DBB274E010A81844C078F85426
:101EA000002800F09A800133102B40F092801946F0
:101EB00093E0002C3FF45FAFFEF738FA9DF8423014
:101EC000000280B2FA3B2080052BDAD8DFE803F06D
:101ED0001313100D0A06FE2B04D006D940F03A0069
:101EE000208049E740F03B00FAE740F03C00F7E78C
:101EF00040F05E00F4E740F05F00F1E740F04F0093
:101F0000EEE7CB441FFA8BFBC3458FD39DF81B0034
:101F100000239AB2904202D80023BB547AE70BA95F
:101F200019444978F9540029F6D00133102BF0D127
:101F30001A46F1E72046FEF7B5FA00283FF41BAF3A
:101F40000720FEF713FA0120FEF73CFA25238DF84F
:101F500040308DF84260002310A81AF9031018448D
:101F60009AB2C17019B101331B2BF5D11A46D01C9E
:101F700018AB19180232002301F8203C8DF84120DB
:101F800019468AB290420DF1600C01F101016244E0
:101F9000BFF67DAF1E2E02F8203C28BF1E26C6EBE2
:101FA00046139DF84110009406EB8303DB000331D8
:101FB0009BB20022C9B210A8FEF709FB00283FF42B
:101FC000DAAE9DF84230002B7FF473AF9DF84120CC
:101FD000023A934299B2FFF65FAF00237B5419E7B0
:101FE000CEA80008DEA8000816A900082DE9F04FC9
:101FF00089B08A46059000214648BDF84CB0149C33
:10200000ADF81C1091469846FEF7D0FA002834D15E
:10201000414E3278012A0AD1404D22462946404697
:10202000FFF7ACFC08B902232B70002333703C4D42
:102030002B78012B01D0129BFBB108AB4FF48066CB
:1020400023F8026D5A46009412994046FFF75DFC52
:1020500008B9ADF81E60BDF81E30802B9CBF4FF450
:102060008063ADF81E3000232B702C4BBDF81E2072
:102070001B7853432B4A5B10138000252E46564590
:102080003CD2A94502D2002C3CD12BE0254A059830
:102090001788AAEB06039F4228BF9FB207ABCDE982
:1020A00001B3129B0093003318BF01234246304412
:1020B0003946FEF76BFEBDF81C200644D3B204B1CE
:1020C0002280874216D0BBB1122B04D1FA2003F034
:1020D00061FD0135D3E7A3F11302022A06D8104BA4
:1020E00001221A70304609B0BDE8F08F182BF6D0E7
:1020F0006320ECE70025ECE71D46EAE7002CF1D071
:10210000A945EFD2238823F0FF0343F01E03238069
:10211000E8E700BFF6A800080D0100201F0100201D
:102120000C0100202001002070B505468AB00E4643
:1021300014460AB1002313802046FEF7B3F960B3BA
:102140000720FEF713F90120FEF73CF940F21523B2
:10215000ADF808308DF80B60002317368DF80A5063
:10216000009435441A46052102A88DF80C50FEF75C
:102170002EFA90B11424FA2003F00CFDFA2003F09B
:1021800009FD013CFA2003F005FDA4B2FA2003F09A
:1021900001FD002CEFD19DF80A000AB070BD0000CF
:1021A0002DE9F04F95B00DF1200806468A4693467A
:1021B000209C05931022002140469DF878909DF8C0
:1021C0007C70FEF7FDFB0023ADF81E3004B12380C8
:1021D00021467848FEF7EAF940B1022E06D9FEF70B
:1021E000A5F8000240F07700208012E021467248F6
:1021F000FEF7DCF9A0B90DF11E014846FFF738FAE9
:10220000054668B9BDF81E20D3B2553B012B07D84F
:102210000CB9002500E02280284615B0BDE8F08FFB
:102220006648FEF79BF900285CDA00231BF90310CF
:1022300008F803109AB219B10133102BF6D11A46DF
:1022400014AB1A44002302F8303C2046FEF72AF96A
:102250000028DED00720FEF789F80120FEF7B2F84B
:1022600041F21863ADF830304FEA1A238DF832602E
:102270008DF833308DF834A000220CA818F9021024
:1022800093B2002937D105339BB200219AB2142AA8
:1022900038D9059B8DF847901B0A8DF845300022F0
:1022A000059B8DF846301346815C01320B44182A99
:1022B000DBB2F9D18DF848300094002305221921B2
:1022C000FEF785F90028A4D09DF83250EDB1002C1E
:1022D0009FD0FEF72BF89DF83230C3F1800343EA1C
:1022E000002081E723463A4659464046FFF730FD35
:1022F0000028AAD18DE783180132102A5971BDD167
:102300001346C0E7C1540133C0E716F0FD0F4FD0AC
:1023100006F00F06012E7FF47CAF07EB8707A84677
:10232000AA4647453BD08DF81DA0C826FA2003F0E9
:1023300031FCFA2003F02EFCFA2003F02BFCFA20EB
:1023400003F028FC013EF1D1CDE90164009633464B
:102350000DF11D0231464846FFF76BFAE0B19DF8DA
:102360001D30062B18D8DFE803F00417232323239E
:102370000E00002C3FF450AFFDF7D8FF000240F0F4
:102380003300208048E7002C3FF446AFFDF7CEFF36
:10239000000240F03900F4E708F10108C1E7002C21
:1023A0003FF437AFFDF7C2FF000240F03400E8E72A
:1023B000012531E71EA900080EA90008CEA80008D3
:1023C00070B50546AC6B206C00F0500050BB206C23
:1023D00040F4007020642068806800F04050E8B944
:1023E000207ED8B92068C06A00F4700020B120684F
:1023F000806800F4806088B92068406820F0200080
:1024000021684860206C20F480702064206C00F407
:10241000805018B9206C40F001002064204600F084
:1024200087FD0BE0206C00F0100018B1204600F092
:102430009EFD03E0A06BC16C2846884770BD70B557
:102440000546AC6B40202064606C40F00400606482
:10245000204600F08CFD70BD70B50446A56B284683
:1024600000F084FD70BD000055494A6822F44032F6
:102470004A604A6843681A434A600268526822F414
:10248000807203685A6002685368026943EA022254
:1024900003685A600268526822F0407203685A600A
:1024A0000268526883681A4303685A600268926837
:1024B00022F4006203689A6002689268C3681A4353
:1024C00003689A603F4B826A9A4218D00268926809
:1024D00022F0706203689A6002689268836A1A4305
:1024E00003689A600268926822F0405203689A601A
:1024F00002689268C36A1A4303689A600BE0026834
:10250000926822F0706203689A600268926822F012
:10251000405203689A600268926822F002020368DF
:102520009A6002689368027E43EA420203689A60F6
:102530002022125CA2B10268526842F40062036871
:102540005A600268526822F4604203685A60026866
:102550005368426A521E43EA423203685A6005E0F9
:102560000268526822F4006203685A600268D26A04
:1025700022F470020368DA620268D36A828B521E08
:1025800043EA02520368DA620268926822F4007237
:1025900003689A600268936890F8302043EA422208
:1025A00003689A600268926822F4806203689A6005
:1025B00002689368426943EA822203689A6070471E
:1025C000002301400100000F10B500200AE00021A7
:1025D00005E000227D4B03EBC0035A54491C082937
:1025E000F7DB401C0428F2DB00200DE0AA21774A2B
:1025F00002F83010411C02EBC0025170BB21734A3B
:1026000002EBC002D171401C0428EFDB0122110251
:102610006F4801F0F1F9012211036D4801F0ECF966
:102620000122D1036A4801F0E7F9012291036848C9
:1026300001F0E2F901229102654801F0DDF9012281
:102640005102634801F0D8F94FF47A7001F0A4F810
:1026500014E04FF4807000F045F94FF4FA7001F087
:102660009BF84FF4807000F0A1F94FF4FA7001F07C
:1026700093F84FF48071002000F04CF95548007831
:102680009228E6D114E04FF4805000F02BF94FF47B
:10269000FA7001F081F84FF4805000F087F94FF4A0
:1026A000FA7001F079F84FF48051002000F032F90F
:1026B000484800783C28E6D14FF4FA7001F06CF8F5
:1026C0004FF48052D521012000F0E4F94FF48072DC
:1026D0008621012000F0DEF9642001F05DF84FF45E
:1026E0008052D221022000F0D5F94FF480721221DD
:1026F000022000F0CFF9642001F04EF84FF4805230
:10270000EC21032000F0C6F94FF48072CC210320A5
:1027100000F0C0F9642001F03FF84FF480524021EE
:10272000052000F0B7F94FF480725021052000F029
:10273000B1F90A2001F030F84FF48072F021062040
:1027400000F0A8F90A2001F027F84FF48072F02178
:10275000072000F09FF90A2001F01EF84FF4807264
:10276000F021082000F096F90A2001F015F84FF446
:10277000805201210D2000F08DF94FF48072072165
:102780000D2000F087F90A2001F006F84FF480527E
:1027900001210E2000F07EF94FF4807207210E20F7
:1027A00000F078F90821002000F0D6F84FF47A7094
:1027B00000F0F2FF4FF4807000F00AF94FF48050FF
:1027C00000F006F9642000F0E7FF10BD18110020AA
:1027D00000100240D01000202DE9F0474FF004090E
:1027E00000203C4908603C490860002404E00020C7
:1027F0003A4941F82400641C4C45F8DB00224FF4B0
:102800008051374801F0F8F8122006F01BFC002434
:102810000AE0002006F016FC05462E48006845EA4E
:1028200000202C490860641C032CF2DB002413E018
:10283000002006F007FC0746002006F003FC804657
:10284000002006F0FFFB0646380440EA0821314329
:10285000224840F82410641C012CE9DB01221103FA
:102860001F4801F0C9F800224FF480711C4801F0A4
:10287000C3F8122006F0E6FB00240AE0002006F070
:10288000E1FB05461448006845EA0020124908604B
:10289000641C032CF2DB012413E0002006F0D2FBC1
:1028A0000746002006F0CEFB8046002006F0CAFB5B
:1028B0000646380440EA08203043084941F824001D
:1028C000641C042CE9DB01221102054801F094F894
:1028D000BDE8F0877400002078000020E810002098
:1028E0000010024010B5044600222146084801F0BD
:1028F00083F80A2000F050FF062006F0A3FB0A2010
:1029000000F04AFF01222146014801F075F810BD90
:102910000010024070B504460D4604F12000C6B216
:10292000002229460A4801F067F8304606F08AFB83
:10293000002006F087FB002006F084FB05490855BF
:1029400001222946024801F057F80248005D70BD97
:1029500000100240D01000202DE9F04104460D4641
:1029600004F12000C7B200224FF480510D4801F05D
:1029700043F8384606F066FB284606F063FB00265F
:1029800006E0002006F05EFBA119074A5054761CB1
:10299000AE42F6DD01221103024801F02DF8BDE838
:1029A000F081000000100240D010002010B5044655
:1029B00000222146054801F01FF8112006F042FBD5
:1029C00001222146014801F017F810BD0010024015
:1029D00010B5044600222146054801F00DF80820F4
:1029E00006F030FB01222146014801F005F810BD38
:1029F0000010024010B5002308E0224951F82300DE
:102A000005F05EFB204941F823005B1C042BF4DB3E
:102A100000200EE0002109E01B4A02EB8002535C1B
:102A20001A4A02EBC0048A1CA354491C0429F3DB94
:102A3000401C0228EEDB1648006818B1012113483B
:102A4000417502E0002111484175002016E00E4951
:102A500001EB800149780C4A02EB80029278114424
:102A6000094A02EB8002D2781144074A12F820206A
:102A70001144064A02EBC0029171401C0428E6DBB7
:102A800010BD0000E81000200811002018110020DF
:102A9000880000202DE9F04104460D46164604F159
:102AA0004000C7B2002231460A4800F0A5FF384670
:102AB00006F0C8FA002006F0C5FA284606F0C2FA69
:102AC00001223146034800F097FF03480555BDE851
:102AD000F081000000100240D010002010B5012449
:102AE0002102034800F080FF00B10024204610BD01
:102AF0000000024010B504462146024801F07EFD68
:102B000010BD0000080D002010B5044801F089FD3B
:102B1000042801D0012010BD0020FCE7080D002092
:102B200010B5002400F014F8012801D0012010BDD8
:102B3000064801F088FD044634B94FF400610348AB
:102B400001F012FC00B101242046F0E7080D00203E
:102B500008B501200090FFF7C1FF08B900200090E0
:102B60009DF8000008BD00002DE9F04104460D4627
:102B70001646002733462A462146044801F03CFE0B
:102B800000B101273846BDE8F0810000080D0020A3
:102B900010B5002201210248006805F049FC10BD73
:102BA000980000202DE9F04104460D461646002706
:102BB00033462A462146044801F0CCFE00B10127E5
:102BC0003846BDE8F0810000080D002000BFFEE798
:102BD00010B5024800F000FC10BD0000940E00206B
:102BE00010B5024800F0F8FB10BD000028100020CE
:102BF00010B5024800F0F0FB10BD0000F40E0020FC
:102C000010B5024800F0E8FB10BD0000980C002051
:102C100010B5024800F0E0FB10BD0000380C0020A9
:102C20000146087810381823B0FBF3F20848805C9E
:102C3000C865032A05D908686FF30900001D886577
:102C400003E008686FF309008865886D704700002D
:102C500030A80008014600208A6A8B69CBB932B1DE
:102C6000012A0DD0022A03D0032A10D10EE000BFA2
:102C7000CB6A03F08073B3F1807F00D1012007E0BD
:102C8000CB6AB3F1C07F00D1012001E000E000BFBA
:102C900034E08B69B3F5005F1AD132B1012A07D055
:102CA000022A03D0032A11D10AE000BF01200EE05E
:102CB000CB6A03F08073B3F1807F00D1012006E07E
:102CC000CB6AB3F1C07F00D1012000E000BF15E066
:102CD00032B1012A05D0022A04D0032A0CD103E024
:102CE00000BF00BF012008E0CB6A03F08073B3F19E
:102CF000807F00D1012000E000BF00BF704730B5E9
:102D00000468246824F4802405682C6004686360E7
:102D10008468402C04D10468A2600468E16003E088
:102D20000468A1600468E26030BD704710B54FF4DC
:102D3000006000F053FD10BD72B600BFFEE730B575
:102D400004460D4600222946204600F001F830BD19
:102D5000F0B50346012500241148407A01281CDA09
:102D600000200F4E767A0E4FB8553846467A001D31
:102D700040F82630001F467A083082553E46707A69
:102D8000461C7E72044604F1300008703A204870F8
:102D90002F2088700020C87000252846F0BD000054
:102DA0003811002038B502460020009000BF92F88C
:102DB0003C00012801D1022038BD012082F83C00EE
:102DC00000BF0868092816D91068C0680C780A3C4A
:102DD00004EB44050724AC40A0431468E0600C7881
:102DE0000A3C04EB44048868A0401468E46820436B
:102DF0001468E06013E0106800690C7804EB440587
:102E00000724AC40A043146820610C7804EB440410
:102E10008868A040146824692043146820614868C9
:102E2000072817D21068406B0C79641E04EB8405E8
:102E30001F24AC40A04314686063088880B20C79FA
:102E4000641E04EB8404A0401468646B204314687F
:102E5000606331E048680D2817D21068006B0C7968
:102E6000E41F04EB84051F24AC40A04314682063D6
:102E7000088880B20C79E41F04EB8404A040146835
:102E8000246B20431468206316E01068C06A0C7934
:102E90000D3C04EB84051F24AC40A0431468E062A1
:102EA000088880B20C790D3C04EB8404A0401468BF
:102EB000E46A20431468E062194B1A4C1068A0427F
:102EC00006D10868122803D1586840F48000586081
:102ED000144C1068A0421CD10868102802D0086861
:102EE000112816D1586840F400005860086810286E
:102EF0000FD10D4800680D4CB0FBF4F000EB8000E2
:102F00004000009002E00098401E009000980028C9
:102F1000F9D100BF002082F83C0000BF00BF4BE7A2
:102F200000230140002001406C00002040420F00BF
:102F300010B504460848844206D10848006805F0E8
:102F4000CDFA0120064908600648844202D10120DA
:102F50000549086010BD0000A80B002038000020C3
:102F60005C000020F00B00205800002070477047E4
:102F700070B5044600250CB9012070BD1549A06A42
:102F8000884200D000BF206C30B9204600F024F801
:102F90000020606484F83C00206C00F0100088B9C8
:102FA000206C20F4885040F0020020642046FFF797
:102FB0005BFA00206064206C20F0020040F0010009
:102FC000206400E0012500BF002084F83C0000BF21
:102FD0002846D2E70100000F10B586B00446142140
:102FE00001A8FDF7EBFC5149206888424BD100BF96
:102FF000002000904E48006840F480704C49086002
:103000000846006800F48070009000BF00BF00BF59
:103010000020009046481438006840F00100444900
:10302000143908600846006800F00100009000BFF5
:1030300000BF01200190032002900020039001A90D
:103040003C4800F0D9FB3C483C49086000204860FF
:1030500000213A488160C1604FF4806101614900FC
:103060004161890081614911C16149020162002108
:10307000416200F0D1FA08B1FFF75EFE00BF2F48B1
:10308000A063846350E02E49206888424CD100BF81
:10309000002000902648006840F400702449086031
:1030A0000846006800F40070009000BF00BF00BF39
:1030B000002000901E481438006840F001001C49B0
:1030C000143908600846006800F00100009000BF55
:1030D00000BF02200190032002900020039001A96C
:1030E000144800F089FB14483038164908604FF046
:1030F00000704860002113488160C1604FF4806116
:10310000016149004161890081614911C16100216A
:103110000162416200F080FA08B1FFF70DFE00BFC6
:103120000848A063846300BF06B010BD00200140C2
:10313000443802400000024070640240380C002015
:1031400000210140980C0020F8B504460D461646B3
:103150000020009000BF94F83C00012801D102201B
:10316000F8BD012084F83C0000BF2068806800F0B2
:103170000100A0B92068806840F0010021688860E3
:10318000554800685549B0FBF1F000EB4000009055
:1031900002E00098401E009000980028F9D12068B5
:1031A000806800F48070B0F5807F05D12068806869
:1031B00020F48070216888602068806800F0010039
:1031C00000287ED0206C40F20161884340F480707A
:1031D00020642068406800F4806028B1206C20F4EE
:1031E000005040F480502064206C00F48050B0F512
:1031F000805F04D1606C20F00600606401E0002074
:10320000606400BF002084F83C0000BF344F3548A4
:10321000A16BC8633448A16B08643448A16BC864CF
:103220006FF02200216808602068406840F08060EC
:10323000216848602068806840F480702168886058
:10324000226802F14C0133462A46A06B00F05AFA7C
:10325000786800F01F0018BB25492068884213D009
:1032600024492068884204D1381D006800F01F00FE
:1032700050B12149206888422BD11948001D0068AF
:1032800000F01F00102824D22068806800F0405011
:10329000F8B92068806840F080402168886018E0B4
:1032A00013492068884214D12068806800F040509B
:1032B00078B92068806840F080402168886008E024
:1032C000FFE7206C40F010002064606C40F00100CB
:1032D0006064002044E700006C00002040420F00C2
:1032E00000230140C1230008592400083F2400089E
:1032F00000200140002101400022014070B5044639
:10330000A56D00F07FFB064694F83500022808D032
:103310008020606500BF002084F8340000BF0120D9
:1033200070BD2068006820F01600216808602068E1
:10333000406920F0800021684861206C08B9A06CC9
:1033400028B12068006820F0080021680860206823
:10335000006820F001002168086010E000F052FBD6
:10336000801B05280BD920206065032084F83500D8
:1033700000BF002084F8340000BF0320D0E720689D
:10338000006800F001000028E8D194F85C103F20AC
:103390008840A860012084F8350000BF002084F830
:1033A000340000BF00BFBBE7014691F8350002289A
:1033B00003D08020486501207047052081F8350042
:1033C0000868006820F001000A6810600020F3E738
:1033D0000146486D70470000F8B504460020009093
:1033E0008C4800684FF41651B0FBF1F7A56D2E68BC
:1033F00094F85C1008208840304098B1206800683C
:1034000000F0040070B12068006820F0040021681A
:10341000086094F85C1008208840A860606D40F057
:103420000100606594F85C1001208840304068B16C
:103430002068406900F0800040B194F85C100120E1
:103440008840A860606D40F00200606594F85C10F0
:1034500004208840304068B12068006800F0020015
:1034600040B194F85C1004208840A860606D40F082
:103470000400606594F85C1010208840304078B3F8
:103480002068006800F0080050B394F85C10102029
:103490008840A8602068006800F4802080B120681F
:1034A000006800F4002028B9206CC8B12046216CC7
:1034B000884715E0A06C98B12046A16C88470FE0C2
:1034C0002068006800F4807028B92068006820F047
:1034D000080021680860206C10B12046216C8847E4
:1034E00094F85C10202088403040002865D0206887
:1034F000006800F0100000285FD094F85C102020D5
:103500008840A86094F83500052828D12068006814
:1035100020F01600216808602068406920F08000D3
:1035200021684861206C08B9A06C28B12068006847
:1035300020F008002168086094F85C103F20884063
:10354000A860012084F8350000BF002084F8340012
:1035500000BF206D10B12046216D8847F8BD20685E
:10356000006800F4802080B12068006800F400202A
:1035700028B9606C10B12046616C88471DE0E06B93
:10358000D8B12046E16B884717E02068006800F456
:10359000807068B92068006820F010002168086019
:1035A000012084F8350000BF002084F8340000BFFB
:1035B000E06B10B12046E16B8847606D38B3606DF9
:1035C00000F00100F0B1052084F8350020680068A3
:1035D00020F001002168086000BF0098401C0090A6
:1035E000B84200D905E02068006800F0010000281A
:1035F000F3D100BF012084F8350000BF002084F81B
:10360000340000BFE06C10B12046E16C884700BF79
:10361000A4E700006C0000202DE9F04104460025DD
:1036200000F0F0F9074614B90120BDE8F081606AA6
:1036300000B100BF022084F8350000BF002084F8EC
:10364000340000BF2068006820F001002168086095
:103650000AE000F0D7F9C01B052805D920206065D5
:10366000032084F83500E0E72068006800F00100DE
:103670000028EED12068056821480540D4E9010101
:103680000843E16808432169084361690843A16967
:103690000843E1690843216A08430543606A042836
:1036A00003D1D4E90B010843054320680560206875
:1036B000456925F00705606A0543606A04280DD155
:1036C000A06A0543E06A48B12046FFF7C3FA28B173
:1036D00040206065012084F83500A6E72068456138
:1036E0002046FFF79DFA064694F85C103F2088407C
:1036F000B06000206065012084F83500002094E768
:103700003F8010F02DE9F04704460D4616461F464F
:103710004FF00008D4F8589000BF94F83400012806
:1037200002D10220BDE8F087012084F8340000BFF8
:1037300094F83500012825D1022084F835000020B6
:1037400060653B46324629462046FFF7D8FA94F892
:103750005C103F208840C9F808002068006840F0ED
:10376000160021680860206C28B12068006840F0CD
:103770000800216808602068006840F001002168A6
:10378000086006E000BF002084F8340000BF4FF05E
:1037900002084046C6E7000070B5044600F032F962
:1037A00006462546681C10B104480078054400BF51
:1037B00000F028F9801BA842FAD370BD68000020F1
:1037C00038B50446B4F5006F05D169460248006873
:1037D00006F068FA00BF38BD3C00002010B5044672
:1037E00004480068204020B1024804602046FFF7EA
:1037F000E7FF10BD143C0140F8B502460B4600251A
:10380000002400200021D5E0012606FA01F51E68FB
:1038100006EA0504AC4274D11E7906F00306012EB7
:1038200004D01E7906F00306022E13D190684F00D3
:103830000326BE40B0434F00DE68BE403043906078
:10384000506801268E40B0431E79C6F300168E40A4
:10385000304350601E7906F00306032E09D0D0686D
:103860004F000326BE40B0434F009E68BE40304329
:10387000D0601E7906F00306022E13D1CF0802F1A4
:10388000200656F827004E07F70E0F26BE40B0431D
:103890004F07FF0E1E69BE403043CF0802F12006DD
:1038A00046F8270010684F000326BE40B0431E793B
:1038B00006F003064F00BE40304310605E6806F419
:1038C0004036002E75D000BF002600963B4E36686D
:1038D00046F48046394F3E603E46366806F48046E0
:1038E000009600BF00BF364E8F0856F827008E079F
:1038F000370F0F26BE40B043324EB24202D10026EF
:1039000024E056E0304EB24201D101261EE02F4E97
:10391000B24201D1022619E02D4EB24201D1032656
:1039200014E02C4EB24201D104260FE02A4EB242DE
:1039300001D105260AE0294EB24201D1062605E052
:10394000274EB24201D1072600E008268F073F0F1D
:10395000BE4030431A4E8F0846F82700214E30688B
:10396000A0435E6806F4803606B120431D4E3060E9
:10397000361D3068A0435E6806F4003606B1204369
:10398000184E361D3060361D3068A0435E6806F460
:10399000801606B12043134E08363060361D30685D
:1039A000A0435E6806F4001606B120430D4E0C36A7
:1039B0003060491C1029FFF427AFF8BD443802409D
:1039C00008380140000002400004024000080240A4
:1039D000000C024000100240001402400018024097
:1039E000001C0240003C0140024613690B400BB131
:1039F000012000E0002070470AB1816101E00B0462
:103A00008361704701480068704700006000002033
:103A10000348006803490978084401490860704771
:103A2000600000206800002010B50D48006840F4D8
:103A300000700B4908600846006840F48060086028
:103A40000846006840F480700860032000F0C8F861
:103A5000002000F007F800F04BF8002010BD000037
:103A6000003C024070B588B00446002500260022C4
:103A70002146192000F076F8192000F063F800BF05
:103A8000002001901648006840F0010014490860C9
:103A90000846006800F00100019000BF00BF02A9C5
:103AA00003A800F073F900F0A9F945000D48B5FB33
:103AB000F0F0461E0C480D49086040F2E7310B4813
:103AC000C160466000210161816001F0C5FA20B942
:103AD000064801F0F5FA08B070BD0120FBE70000D0
:103AE0004438024040420F0000000140881000208E
:103AF00008B500BF002000901148006840F48040E5
:103B00000F4908600846006800F48040009000BF3C
:103B100000BF00BF00200090081F006840F08050E8
:103B2000091F08600846006800F08050009000BF40
:103B300000BF00220F21901E00F014F808BD000005
:103B40004438024001460846002809DB00F01F0304
:103B500001229A4043099B0003F1E023C3F80021AE
:103B600000BF70472DE9F05F80460D4616460027DE
:103B700004F0B4FA074639462A46334601F00700F6
:103B8000C0F1070ABAF1040F02D94FF0040A01E0AC
:103B9000C0F1070AD14600F1040ABAF1070F02D2B8
:103BA0004FF0000A01E0A0F1030AD4464FF0010AE9
:103BB0000AFA09FAAAF1010A0AEA020A0AFA0CFA4E
:103BC0004FF0010B0BFA0CFBABF1010B0BEA030BF3
:103BD0004AEA0B042146404604F088FABDE8F09F0B
:103BE00000BF00F00702064B19684FF6FF031940AB
:103BF000044B0B4343EA0221014B196000BF70479D
:103C00000CED00E00000FA0570B504460D460CB955
:103C1000012070BD5848006800F00700A84209D292
:103C200055490D700846006800F00700A84201D011
:103C30000120EEE7207800F0020002281DD1207854
:103C400000F00400042805D14C48006840F4E0501E
:103C50004A490860207800F00800082805D1474844
:103C6000006840F46040454908604448006820F01E
:103C7000F000A168084341490860207800F0010085
:103C8000A8B36068012807D13C4808380068C0F331
:103C90004040B8B90120BCE76068022802D06068E3
:103CA000032807D1354808380068C0F3406048B998
:103CB0000120AEE7314808380068C0F3400008B979
:103CC0000120A6E72D48006820F003006168084342
:103CD0002A490860FFF796FE064609E0FFF792FEC4
:103CE000801B41F28831884202D9032091E707E026
:103CF0002248006800F00C006168B0EB810FEDD144
:103D00001D48006800F00700A84209D91A490D7043
:103D10000846006800F00700A84201D0012078E7BB
:103D2000207800F00400042807D11448006820F42B
:103D3000E050E168084311490860207800F008006D
:103D4000082808D10D48006820F46040216940EA45
:103D5000C1000A49086000F061F808490968C1F328
:103D60000311074A515CC8400649086006480068CC
:103D7000FFF778FE00204CE7003C02400838024084
:103D800038A800086C000020640000200F220260A8
:103D90000D4A126802F0030242600B4A126802F0F8
:103DA000F0028260084A126802F4E052C260064AD9
:103DB000126802F46042D2080261044A126802F0FA
:103DC00007020A607047000008380240003C0240C9
:103DD00001480068704700006C00002000B5FFF744
:103DE000F7FF04490968C1F38221034A515CC840C6
:103DF00000BD00000838024048A8000800B5FFF7E1
:103E0000E7FF04490968C1F34231034A515CC840E5
:103E100000BD00000838024048A800082DE9F0471E
:103E2000002400250026A1462548006800F00C006B
:103E300020B1042805D008283AD105E0DFF88490A5
:103E400039E0DFF8849036E01D48001F006800F07C
:103E50003F041B48001F006800F4800078B11A4836
:103E60001749091F0968C1F38811A0FB01700146B9
:103E7000224600233846FCF757FD05460EE0114860
:103E80000F49091F0968C1F38811A0FB01700146A1
:103E9000224600233846FCF747FD05460848001F28
:103EA0000068C0F30140401C4600B5FBF6F902E093
:103EB000DFF8109000BF00BF4846BDE8F087000063
:103EC000083802400024F40000127A00F8B50446D5
:103ED0000CB90120F8BD207800F00100002874D052
:103EE000F948006800F00C0004280DD0F64800687E
:103EF00000F00C00082813D1F348001F006800F4FC
:103F00008000B0F5800F0BD1EF4808380068C0F38F
:103F10004040002859D06068002856D10120D9E7D8
:103F200000BF6068B0F5803F08D1E74808380068F6
:103F300040F48030E449083908601EE06068B0F55C
:103F4000A02F0DD1E0480838006840F48020DE49F9
:103F5000083908600846006840F4803008600CE0CA
:103F6000D9480838006820F48030D74908390860FB
:103F70000846006820F48020086000BF606890B1A7
:103F8000FFF740FD054606E0FFF73CFD401B6428B7
:103F900001D903209EE7CC4808380068C0F34040B0
:103FA0000028F1D011E0FFF72DFD054606E0FFF7F0
:103FB00029FD401B642801D903208BE7C24808383B
:103FC0000068C0F340400028F1D1207800F00200E2
:103FD00002285FD1BC48006800F00C0058B1BA4814
:103FE000006800F00C0008281CD1B748001F0068CA
:103FF00000F48000B0B9B44808380068C0F340004D
:1040000020B1E068012801D0012063E7AE480838FC
:10401000006820F0F800216940EAC100AA49083987
:10402000086037E0E06800B30120A8490860FFF7A6
:10403000E9FC054606E0FFF7E5FC401B022801D934
:10404000032047E7A04808380068C0F34000002874
:10405000F1D09D480838006820F0F800216940EA56
:10406000C10099490839086014E0002097490860A8
:10407000FFF7C8FC054606E0FFF7C4FC401B02281A
:1040800001D9032026E7904808380068C0F34000B3
:104090000028F1D1207800F0080008282CD16069B0
:1040A000A8B101208A490860FFF7ACFC054606E08C
:1040B000FFF7A8FC401B022801D903200AE7824829
:1040C0006C300068C0F340000028F1D014E00020FC
:1040D0007F490860FFF796FC054606E0FFF792FC73
:1040E000401B022801D90320F4E677486C300068B1
:1040F000C0F340000028F1D1207800F0040004282B
:1041000070D1002770483830006800F0805090B9B6
:1041100000BF002000906C483830006840F08050AC
:104120006949383108600846006800F08050009006
:1041300000BF00BF01276748006800F48070B0B975
:104140006448006840F4807062490860FFF75AFCD8
:10415000054606E0FFF756FC401B022801D9032064
:10416000B8E65C48006800F480700028F2D000BF18
:10417000A068012808D154486830006840F0010068
:104180005149683108601DE0A06805280DD14E48EE
:104190006830006840F004004B4968310860084608
:1041A000006840F0010008600CE047486830006893
:1041B00020F001004449683108600846006820F09A
:1041C0000400086000BFA068A8B1FFF71BFC05460B
:1041D00009E0FFF717FC401B41F28831884202D901
:1041E000032077E626E0384868300068C0F34000D6
:1041F0000028EED013E0FFF705FC054608E0FFF7C6
:1042000001FC401B41F28831884201D9032061E65C
:104210002D4868300068C0F340000028EFD1012F1E
:1042200007D129483830006820F0805026493831BD
:10423000086000BFA069002845D02348006800F04E
:104240000C0008285DD0A069022845D100201F4934
:104250000866FFF7D7FB054606E0FFF7D3FB401BD8
:10426000022801D9032035E6174808380068C0F352
:1042700040600028F1D1D4E907010843616A40EAAF
:1042800081110122A06AC2EB500041EA00412C20BA
:10429000005D41EA00600C49091F086001200B49DC
:1042A0000866FFF7AFFB054606E0FFF7ABFB401BD8
:1042B000022801D903200DE6034808380068C0F33E
:1042C00040600028F1D049E0083802400000474231
:1042D000800E474200700040002021490866FFF729
:1042E00091FB054606E0FFF78DFB401B022801D934
:1042F0000320EFE51B480068C0F340600028F2D1BE
:104300002CE0A069012800D1E4E51648001D0668EC
:10431000A069012820D006F48001E06981421BD108
:1043200006F03F01206A814216D147F6C070304046
:10433000616AB0EB811F0FD106F440310122A06AFF
:10434000C2EB5000B1EB004F06D106F070612C209B
:10435000005DB1EB006F01D00120BBE50020B9E5A5
:104360000000474200380240F0B589B004460E46CE
:104370000027032084F83400606C032820D0B6F5B1
:10438000805F04D1A06B40F08050A0631CE0B6F5C4
:10439000006F07D1204602F0DBFE0546A06B2843E4
:1043A000A06311E03EB9204602F09EFE0546A06BD8
:1043B0002843A06308E0A06B40F00060A06303E026
:1043C000A06B40F08050A063A06B38B11748216803
:1043D0008863012084F83400012713E060680390AB
:1043E000A0680490E0680590069660690790A0694F
:1043F000089006A807C88DE80700206803A90EC921
:1044000002F04CF84FF40071206802F0BDF8054648
:1044100035B1064821688863A06B2843A063012753
:10442000012084F83400384609B0F0BDFF05400093
:104430007047000010B50246506E800F0870506E35
:10444000C0F383604870506EC0F301608870506E96
:10445000000CC870B2F86400000A087192F8640099
:104460004871906E000DC880906EC0F303400872D2
:104470006820805AC0F3C03048726820805AC0F368
:10448000803088726820805AC0F34030C87268203B
:10449000805AC0F30030087300204873506C002825
:1044A00036D16820805A8005030DD06E43EA9070A3
:1044B0000861D06EC0F3C2600875D06EC0F30260B0
:1044C0004875D06EC0F342508875D06EC0F38240FC
:1044D000C875D06EC0F3C23008760869401C5065BC
:1044E0000B7E506D03F007039B1C01249C4060432E
:1044F0005065087A00F00F03012098409065D2E9DA
:1045000015035B0A5843D0654FF40073136621E02E
:10451000506C012813D16820805C8006830AD06E1D
:1045200043EA104008610869401C83025365536DDB
:10453000D3654FF400739365936D13660AE02E48BC
:1045400013689863906B40F080509063012082F86C
:10455000340010BD6C20805AC0F3803001F8190F70
:104560006C20805AC0F3C61048706C20805C00F04C
:104570007F008870106FC00FC870106FC0F341705B
:104580000871106FC0F382604871106FC0F38350E0
:104590008871106FC0F34050C87100200872106F0E
:1045A000C0F3004048727020805AC0F3C030887257
:1045B0007020805AC0F38030C8727020805AC0F3D7
:1045C000403008737020805AC0F300304873702068
:1045D000805AC0F3812088737020805AC0F3012074
:1045E000C8737020805CC0F34600087401204874D2
:1045F00019390020ADE70000FF0540000246506C6D
:104600000860906C4860D06C8860106DC860506D18
:104610000861906D4861D06D8861106EC86100209E
:104620007047F8B50446002000906946204602F025
:1046300043FD054615B1A06B2843A0630098C0F365
:1046400043263046F8BD10B504460CB9012010BD14
:1046500094F8340020B900202077204600F068F854
:10466000032084F83400204600F00CF808B1012043
:10467000EDE70020A0632063012084F834000020CF
:10468000E5E7000070B58AB004460020049005906C
:104690000690079008907620099007A807C88DE833
:1046A0000700206804A90EC901F0F8FE064616B1FD
:1046B00001200AB070BD00201B490860206801F08D
:1046C00007FF01201849A039C1F8A000204602F0D8
:1046D0008DFC05463DB1012084F83400A06B2843D1
:1046E000A0630120E5E7204602F0FEFB05463DB150
:1046F000012084F83400A06B2843A0630120D8E790
:104700004FF40071206801F03FFF05464DB10748A6
:1047100021688863A06B2843A063012084F83400DB
:10472000C7E70020C5E70000A0802542FF05400044
:1047300010B586B00446142101A8FCF73FF92A49B8
:10474000206888424DD100BF0020009027480068B3
:1047500040F40060254908600846006800F40060E5
:10476000009000BF00BF00BF002000901F48143819
:10477000006840F004001D491439086008460068CC
:1047800000F00400009000BF00BF00BF00200090B8
:104790000846006840F0080008600846006800F01D
:1047A0000800009000BF00BF4FF4F85001900220B5
:1047B000029000200390032004900C20059001A992
:1047C0000B48FFF719F80420019002200290002006
:1047D0000390032004900C20059001A90548FFF7E1
:1047E0000BF806B010BD0000002C01404438024018
:1047F00000080240000C02402DE9F04387B0044657
:104800000F4691461D46C8463FB9A06B40F0006078
:10481000A063012007B0BDE8F08394F834000128BC
:104820007ED10020A06308EB0501E06D814205D92F
:10483000A06B40F00070A0630120EBE7032084F838
:10484000340000202168C8622068C06B40F22A3121
:1048500008432168C8633848216CC8633748216C15
:10486000C8640020216C08650021206C8160206CE8
:104870000068006820F0C000216C89680843216C42
:10488000096808606A029308226802F180013A46CA
:10489000206CFEF737FF80B12068C06B20F4957064
:1048A0002168C863264821688863A06B40F0804077
:1048B000A063012084F83400ACE70120214908609E
:1048C000606C012801D04FEA48284FF0FF3001907A
:1048D000680202909020039002200490002005902E
:1048E0000120069001A9206801F0B3FD012D07D930
:1048F000822020634146206801F0AEFE064606E0B5
:10490000812020634146206801F0C2FE064676B150
:104910000B4821688863A06B3043A063012000E04E
:1049200007E084F8340000202063012072E70020B3
:1049300070E702206EE700004D6D0008D96C00089A
:10494000FF0540008C85254210B50446FEF720F98E
:1049500010BD00002DE9F04387B00446884691461B
:104960001D464F46B8F1000F07D1A06B40F0006024
:10497000A063012007B0BDE8F08394F8340001285B
:1049800074D10020A0637919E06D814205D9A06B34
:1049900040F00070A0630120ECE7032084F83400AD
:1049A00000202168C8622068C06B40F21A210843C9
:1049B0002168C8633848E16BC8633848E16BC86454
:1049C0000020E16B0865606C012800D07F02012D9A
:1049D00007D9A02020633946206801F037FF06463A
:1049E00006E0902020633946206801F04BFF064620
:1049F00066B12B4821688863A06B3043A063012017
:104A000084F83400002020630120B3E70120254909
:104A100008604021E06B8160E06B0068006820F076
:104A2000C000E16B89680843E16B096808606902AE
:104A30008B08216801F180024146E06BFEF762FEBF
:104A4000A8B12068C06B40F21A2188432168C8636E
:104A5000134821688863A06B40F08040A063012068
:104A600084F8340000202063012083E711E04FF038
:104A7000FF30019068020290902003900020049083
:104A800005900120069001A9206801F0E2FC0020B9
:104A900070E702206EE70000956D0008D96C0008F1
:104AA000FF0540008C85254210B504460CB9012055
:104AB00010BD606A38B96068B0F5827F00D105E04A
:104AC0000021E16102E00021216161610021A16218
:104AD00094F8510028B9002084F85000204600F0D6
:104AE00047F8022084F851002068006820F0400058
:104AF00021680860A08800F48270218901F40441D3
:104B00000843A18901F400610843217C01F00201FE
:104B10000843217D01F001010843218B01F400715C
:104B20000843217F01F0380108432021095D01F08D
:104B300080010843218D01F4005108432168086079
:104B40000421A06901EA104094F8241001F010013A
:104B50000843216848602068C06920F4006021682B
:104B6000C86100206065012084F8510000209FE7A3
:104B700010B586B00446142101A8FBF71FFF744945
:104B80002068884230D100BF002000907148006842
:104B900040F480506F4908600846006800F4805077
:104BA000009000BF00BF00BF00200090694814388B
:104BB000006840F001006749143908600846006841
:104BC00000F00100009000BF00BFE0200190022033
:104BD000029000200390032004900520059001A975
:104BE0005D48FEF709FEB1E05C492068884233D198
:104BF00000BF002000905748001F006840F480402C
:104C00005449091F08600846006800F4804000907D
:104C100000BF00BF00BF002000904E48143800685D
:104C200040F002004B49143908600846006800F063
:104C30000200009000BF00BF4FF4604001900220CE
:104C4000029000200390032004900520059001A904
:104C50004348FEF7D1FD79E042492068884275D18A
:104C600000BF002000903B48001F006840F4004057
:104C70003849091F08600846006800F400400090A9
:104C800000BF00BF00BF0020009032481438006809
:104C900040F002002F49143908600846006800F00F
:104CA0000200009000BF00BF382001900220029057
:104CB00000200390032004900620059001A92848B5
:104CC000FEF79AFD28482949086000204860002125
:104CD00026488160C1604FF480610161002141611B
:104CE00081614FF48071C1614FF440310162002154
:104CF0004162FEF791FC08B1FEF71EF800BF1B48A9
:104D0000E064846300BF18487830194908600020C7
:104D100048604021164881600021C1604FF48061E5
:104D200001610021416181614FF48071C1614FF4E3
:104D30004031016200214162FEF76EFC08B1FDF7CF
:104D4000FBFF00BF0A48A064846300BF06B010BD2B
:104D5000003001404438024000000240003800406A
:104D600000040240003C004010600240940E00200D
:104D7000F40E00202DE9FF5F0446884691461D464B
:104D80000E9E012002900020019000BF94F8500078
:104D9000012803D1022004B0BDE8F09F012084F86F
:104DA000500000BFFEF72EFE074694F851B0606831
:104DB0000390AA46BBF1010F0BD00398B0F5827F98
:104DC00004D1A06810B9BBF1040F02D002200190F9
:104DD000DBE0B8F1000F03D0B9F1000F00D015B936
:104DE00001200190D1E094F85100042802D0052060
:104DF00084F8510000206065C4F83890E587A587E5
:104E0000C4F83080E586A586206460642068006868
:104E100000F04000402805D02068006840F04000C5
:104E200021680860E068B0F5006F4AD1606810B191
:104E3000BAF1010F09D1206B00882168C860206B8E
:104E4000801C2063E08E401EE08633E0206880688E
:104E500000F00200022810D1E08E70B10298012803
:104E60000BD1206B00882168C860206B801C2063F8
:104E7000E08E401EE086002002902068806800F0EE
:104E8000010068B1E08F58B12068C068A16B08804C
:104E9000A06B801CA063E08F401EE0870120029081
:104EA000FEF7B0FDC01BB04204D3701C10B103204C
:104EB00001906AE0E08E0028C8D1E08F0028C5D1BB
:104EC0004AE0606810B1BAF1010F09D1206B007897
:104ED00021680873206B401C2063E08E401EE08632
:104EE00034E02068806800F00200022810D1E08ED3
:104EF00070B1029801280BD1206B007821680873EB
:104F0000206B401C2063E08E401EE0860020029053
:104F10002068806800F0010068B1E08F58B1206817
:104F2000C068A16B0870A06B401CA063E08F401E9E
:104F3000E08701200290FEF765FDC01BB04201D35F
:104F4000701C00B916B9032001901EE0E08E002805
:104F5000C7D1E08F0028C4D13A463146204602F03E
:104F60001FFA20B101200190202060650DE0A068AB
:104F700050B900BF002000902068C06800902068F1
:104F80008068009000BF00BF00BF012084F851007E
:104F900000BF002084F8500000BF0198FBE6704776
:104FA0007047000030B502460B4600BF92F83C0047
:104FB000012801D1022030BD012082F83C0000BF51
:104FC000022082F83D00106844681068816824F06F
:104FD00070041868044310684460184D1068A842B3
:104FE0001BD01068B0F1804F17D0154D1068A84243
:104FF00013D0144D1068A8420FD0134D1068A8426A
:105000000BD0124D1068A84207D0114D1068A8426D
:1050100003D0104D1068A84205D121F080015868D6
:10502000014310688160012082F83D0000BF00202C
:1050300082F83C0000BF00BFBDE700000000014057
:105040000004004000080040000C00400004014043
:10505000004001400018004010B504460CB9012082
:1050600010BD94F83D0028B9002084F83C0020468B
:1050700000F025F8022084F83D00211D206802F090
:105080007FFB012084F8460000BF84F83E00012128
:105090003F200155402001554120015500BF00BF70
:1050A000012084F842004320015544200155452049
:1050B000015500BF012084F83D000020D0E7704773
:1050C000014691F83D00012801D0012070470220DF
:1050D00081F83D000868C06840F001000B68D860A6
:1050E0001A4B086898421BD00868B0F1804F17D05F
:1050F000174B0868984213D0164B086898420FD097
:10510000154B086898420BD0144B0868984207D09A
:10511000134B0868984203D0124B086898420CD190
:105120000868806800F00702062A0CD0086800684A
:1051300040F001000B68186005E00868006840F066
:1051400001000B6818600020C0E70000000001406B
:105150000004004000080040000C00400004014032
:105160000040014000180040704710B50446206818
:105170000069C0F34000D8B12068C068C0F34000A7
:10518000B0B16FF00200216808610120207720682B
:10519000806900F0030018B12046FFF7E5FF05E045
:1051A000204600F0ADF8204600F08EF90020207770
:1051B00020680069C0F38000D8B12068C068C0F3DF
:1051C0008000B0B16FF004002168086102202077F0
:1051D0002068806900F4407018B12046FFF7C4FFD2
:1051E00005E0204600F08CF8204600F06DF9002024
:1051F000207720680069C0F3C000D8B12068C0687B
:10520000C0F3C000B0B16FF008002168086104204D
:1052100020772068C06900F0030018B12046FFF72E
:10522000A3FF05E0204600F06BF8204600F04CF9A3
:105230000020207720680069C0F30010D8B12068F2
:10524000C068C0F30010B0B16FF0100021680861B1
:10525000082020772068C06900F4407018B120460B
:10526000FFF782FF05E0204600F04AF8204600F0F4
:105270002BF9002020772068006900F0010058B168
:105280002068C06800F0010030B16FF001002168B3
:105290000861204600F0A0F920680069C0F3C01042
:1052A00058B12068C068C0F3C01030B16FF0800002
:1052B000216808612046FFF772FE20680069C0F38C
:1052C000801058B12068C068C0F3801030B16FF012
:1052D000400021680861204600F08AF920680069D2
:1052E000C0F3401058B12068C068C0F3401030B11E
:1052F0006FF02000216808612046FFF751FE10BDC5
:1053000070472DE9F04104460D461646002700BFC0
:1053100094F83C00012802D10220BDE8F081012070
:1053200084F83C0000BF36B1042E1BD0082E31D0CB
:105330000C2E5ED145E02946206802F09FFA2068D5
:10534000806940F00800216888612068806920F049
:105350000400216888612068806929690843216800
:10536000886148E02946206802F0C0FA2068806918
:1053700040F40060216888612068806920F48060C2
:105380002168886120688069296940EA01202168D4
:10539000886130E02946206802F0E6FA2068C0699A
:1053A00040F008002168C8612068C06920F004004E
:1053B0002168C8612068C069296908432168C861FB
:1053C00019E02946206802F00BFB2068C06940F410
:1053D00000602168C8612068C06920F4806021688D
:1053E000C8612068C069296940EA01202168C86154
:1053F00001E0012700BF00BF00BF002084F83C008F
:1054000000BF384689E710B504460CB9012010BD2D
:1054100094F83D0028B9002084F83C00204600F0B4
:1054200025F8022084F83D00211D206802F0A8F92B
:10543000012084F8460000BF84F83E0001213F208F
:105440000155402001554120015500BF00BF0120FA
:1054500084F8420043200155442001554520015560
:1054600000BF012084F83D000020D0E708B50168A6
:10547000B1F1804F0FD100BF0021009110490968A0
:1054800041F001010E4A11601146096801F0010165
:10549000009100BF13E00B4A016891420FD100BF99
:1054A000002100910649096841F00201044A116097
:1054B0001146096801F00201009100BF00BF08BD5C
:1054C00040380240000400407047000070B50446B8
:1054D0000D4615B994F83E000BE0042D02D13F2093
:1054E000005D06E0082D02D14020005D01E0412072
:1054F000005D012801D0012070BD1DB9022084F893
:105500003E000EE0042D03D102213F20015508E0AA
:10551000082D03D102214020015502E00221412043
:10552000015501222946206802F096F92349206896
:10553000884203D022492068884201D1012000E03E
:10554000002028B12068406C40F400402168486485
:105550001A49206888421BD02068B0F1804F17D0CC
:1055600018492068884213D01749206888420FD014
:105570001649206888420BD011492068884207D01C
:1055800013492068884203D01249206888420CD110
:105590002068806800F00706062E0CD0206800689E
:1055A00040F001002168086005E02068006840F0D4
:1055B00001002168086000209EE700000000014013
:1055C000000401400004004000080040000C0040BE
:1055D000004001400018004010B50446034920680F
:1055E000884201D1FEF714FA10BD0000000001400E
:1055F0007047704770B50446002520684069C0F3C5
:10560000C01594F83D00212817D1B5B100BF00BFE7
:105610002168143151E8001F21F080002168143105
:1056200041E80002002AF3D100BF606B10B1606B4B
:10563000FDF764FE204602F0DDFA20684069C0F301
:10564000801594F83E00222817D1B5B100BF00BFE5
:105650002168143151E8001F21F040002168143105
:1056600041E80002002AF3D100BFA06B10B1A06B8B
:10567000FDF744FE204602F077FA002070BD704727
:105680002DE9F84F0446206805682068C668206840
:1056900047694FF00009CA4605F00F09B9F1000F3C
:1056A0000AD105F0200038B106F0200020B12046D4
:1056B00002F0B3FABDE8F88FB9F1000F7CD007F023
:1056C000010018B906F49070002875D005F00100AB
:1056D00030B106F4807018B1206C40F001002064F5
:1056E00005F0040030B107F0010018B1206C40F063
:1056F0000200206405F0020030B107F0010018B18B
:10570000206C40F00400206405F0080048B106F069
:10571000200010B907F0010018B1206C40F008001B
:105720002064206C002846D005F0200028B106F047
:10573000200010B1204602F070FA20684069C0F3E2
:10574000801A206C00F0080010B9BAF1000F2DD0BB
:10575000204602F009FA2068406900F04000402825
:1057600020D100BF00BF2168143151E8001F21F093
:1057700040002168143141E80002002AF3D100BF43
:10578000A06B50B17548A16B0865A06BFDF70CFECE
:1057900088B1A06B016D88470DE02046FFF76FFFD1
:1057A00009E009E02046FFF76AFF04E02046FFF722
:1057B00066FF002020647DE7206B012876D105F08C
:1057C0001000002872D006F010000028FAD000BFA8
:1057D00000200090206800680090206840680090D9
:1057E00000BF00BF2068406900F0400040285ED143
:1057F000A06B006840681FFA80F8B8F1000F54D021
:10580000A08D404551DDA4F82E80A06BC069B0F595
:10581000807F43D000BF00BF21680C3151E8001FDA
:1058200021F4807021680C3141E80002002AF3D194
:1058300000BF00BF00BF2168143151E8001F21F0F4
:1058400001002168143141E80002002AF3D100BFB1
:1058500000BF00BF2168143151E8001F21F0400053
:105860002168143141E80002002AF3D100BF202052
:1058700084F83E000020206300BF00BF21680C3187
:1058800051E8001F21F0100021680C3141E80002AE
:10589000002AF3D100BFA06BFDF730FDA08DE28D93
:1058A000801A81B22046FFF7A4FE03E740E0A08DF6
:1058B000E18D401A1FFA80F8E08DC0B3B8F1000FF7
:1058C00035D000BF00BF21680C3151E8001F21F422
:1058D000907021680C3141E80002002AF3D100BF2A
:1058E00000BF00BF2168143151E8001F21F0010002
:1058F0002168143141E80002002AF3D100BF2020C2
:1059000084F83E000020206300BF00BF21680C31F6
:1059100051E8001F21F0100021680C3141E800021D
:10592000002AF3D100BF41462046FFF762FEC1E6E0
:1059300005F0800030B106F0800018B1204602F07A
:1059400065FBB7E605F0400030B106F0400018B145
:10595000204602F03FF9ADE600BFABE6357A00081D
:1059600010B504460CB9012010BDA06900B100E0DB
:1059700000BF94F83D0028B9002084F83C00204680
:1059800000F028F8242084F83D002068C06820F446
:1059900000502168C860204602F0BCF92068006908
:1059A00020F49040216808612068406920F02A00B6
:1059B000216848612068C06840F400502168C860D0
:1059C00000202064202084F83D0084F83E00002060
:1059D000CAE7000010B586B00446142101A8FAF702
:1059E000EDFF30492068884259D100BF0020009067
:1059F0002D48006840F480202B4908600846006864
:105A000000F48020009000BF00BF00BF0020009085
:105A100025481038006840F002002349103908601A
:105A20000846006800F00200009000BF00BF4FF47D
:105A30004060019002200290002003900320049017
:105A40000720059001A91948FDF7D6FE1848194905
:105A500008604FF000604860002116488160C16016
:105A60004FF4806101610021416181614FF48071D7
:105A7000C1610902016200214162FDF7CDFD08B15B
:105A8000FDF75AF900BF0B48A063846300BF0022F2
:105A900007212720FEF766F82720FEF753F806B007
:105AA00010BD0000004800404038024000040240A1
:105AB000286002402810002070B504460D461646A6
:105AC00094F83E00202816D105B10EB9012070BD12
:105AD00000BF94F83C00012801D10220F7E7012023
