:020000040800F2
:1000000000000220D98E0008452B0008472B00086D
:10001000492B00084B2B00084D2B00080000000066
:10002000000000000000000000000000F172000865
:100030004F2B00080000000091730008F5730008C2
:10004000298F0008298F0008298F0008298F0008B0
:10005000298F0008298F0008298F0008298F0008A0
:10006000298F0008298F0008298F0008512B0008CC
:10007000612B0008298F0008298F0008298F0008AC
:10008000712B0008298F0008298F0008298F00088C
:10009000298F0008298F0008298F0008298F000860
:1000A000298F0008812B0008298F0008298F00085C
:1000B000298F0008298F0008298F0008298F000840
:1000C000298F0008298F0008298F0008298F000830
:1000D000298F0008298F0008298F0008912B00081C
:1000E000E12B0008298F0008298F0008298F0008BC
:1000F000298F0008298F0008298F0008298F000800
:10010000298F0008298F0008298F0008298F0008EF
:10011000298F0008298F0008298F0008298F0008DF
:10012000298F0008298F0008ED2B0008298F00086F
:10013000FD2B0008298F0008298F0008298F00084F
:10014000298F0008298F0008298F0008298F0008AF
:10015000298F0008298F0008298F0008298F00089F
:10016000298F0008298F0008298F0008298F00088F
:10017000298F0008298F0008298F0008000000003F
:08018000298F0008298F0008F7
:1001A00010B5054C237833B9044B13B10448AFF3B1
:1001B00000800123237010BD5C04002000000000BB
:1001C0002CA7000808B5034B1BB103490348AFF344
:1001D000008008BD00000000600400202CA700087B
:1001E0000E4B0F49002270B51C680A8013464EF66C
:1001F00061262589AD0709D572B9207300BF00BFFC
:10020000084B1B780BB100BF00BF70BD01339BB220
:10021000B3424FF00102ECD10B80EEE78451002095
:10022000885100208A510020164A30B5164C1268B9
:10023000002323804EF661251189090603D4118914
:1002400001F4C05119B101339BB2AB42F4D113890F
:1002500013F041030BD11073238019464EF661252C
:100260001089C00705D553B99089C0B230BD9389B4
:10027000EDE7013189B2A9424FF00103F0D12180AD
:10028000F2E700BF845100208851002010B5002003
:1002900006F072FC0420FFF7A3FF0020FFF7C4FF65
:1002A0000446012006F068FC204610BD10B5044647
:1002B000002006F061FC0120FFF792FF2046FFF7C7
:1002C000B3FF0120BDE8104006F056BCF8B5064665
:1002D0000124FFF7DBFFB440E44364B204EA000307
:1002E000DBB2984205461CD04FF47A76FFF7CEFF7A
:1002F000A842074607D0013E0220B6B206F04CFCE9
:100300003D46002EF2D104EA0500C0B2854208D075
:1003100000F0FB00FFF7CAFF0A20BDE8F84006F036
:100320003BBCF8BD2DE9F04106460124FFF7AEFFC6
:10033000B44064B244EA0003DBB29842074603D1FA
:10034000022E01D0052E23D14FF47A75FFF79EFFC0
:10035000B842804607D0013D0220ADB206F01CFC39
:100360004746002DF2D144EA0700C0B2874206D1C9
:10037000022E06D0052E0BD100F0FB0001E0022E6C
:10038000FAD1FFF793FF0A20BDE8F04106F004BC64
:10039000BDE8F08170B5064671B3202928BF202141
:1003A00000200C4606F0E8FB0220FFF719FF0020B2
:1003B000FFF716FF354615F8010BFFF711FFAB1BD2
:1003C000DBB29C42F7D80D4B0D491C6800220A8015
:1003D00013464EF661252089000605D452B9012046
:1003E000BDE8704006F0C8BB01339BB2AB424FF092
:1003F0000102F0D10B80F2E770BD00BF84510020F4
:100400008851002038B5044646F2A815FFF73EFF94
:10041000FF2801D0C3070FD4022006F0BDFB681EE1
:1004200085B2002DF2D14CB1FFF730FF000240F051
:1004300010002080284638BD0120FCE72046FAE75E
:1004400038B5044646F2A815FFF720FFFF2801D073
:1004500083070DD5022006F09FFB013DF4D14CB17E
:10046000FFF714FF000240F011002080284638BD3D
:100470000120FCE72046FAE7202970B528BF20219B
:10048000064600200D4606F077FB0320FFF7A8FE86
:100490000020FFF7C9FE3446A31BDBB2AB4204D3F6
:1004A000012006F069FB284670BD0020FFF7BCFE66
:1004B00004F8010BF0E700231B68FFDE70B5002491
:1004C000114D2646E2B2AB5C533B012B98BFAE54B4
:1004D000835C533B012B98BF8654A956835641B188
:1004E0001BB1994204F10104ECD0994204DD0120D2
:1004F00007E0002BFBDB05D08B42D4BF01204FF07F
:10050000FF3070BD1846FCE71600002010B50C4601
:10051000FFF7D4FF002808DA2CB1FFF7B7FE00027E
:1005200040F077002080012000E0002010BD2DE980
:10053000F843089C0778054690469946FFF72AFF3E
:100540000A2006F029FB4FF6FF7608F1FF381FFA64
:1005500088F8B04506D12046FFF772FF78B9002031
:10056000BDE8F883FA2006F017FBFA2006F014FB2A
:10057000FA2006F011FBFA2006F00EFBE5E74FF437
:100580007A7606FB09F64CF250334FF00009B6FBC1
:10059000F3F601361FFA89F39E42E0D946F2A81815
:1005A000FFF774FE8038C0B27E2821D80CB100233A
:1005B000238020212846FFF75FFF0A2006F0ECFA8F
:1005C0000720FFF783FE697800231A46481C5E1C4B
:1005D0009BB2984225DA29448B78934226D0002C8E
:1005E000BDD0FFF753FE000240F030002080B6E798
:1005F00008F1FF3802201FFA88F806F0CDFAB8F1AA
:10060000000FCDD154B1FFF741FE0002208002203F
:1006100006F0C2FA238843F01603238009F101098A
:10062000B8E7EB5C1A44D2B23346D0E72B7823F01C
:100630008003BB420BD0362F01D1252B07D0002CD5
:100640008DD0FFF723FE000240F03100CEE70021FD
:100650001148FFF75BFFE8B9AB78782B1AD1002C73
:100660003FF47DAFFFF712FE000280B22080EB78EE
:10067000032B0CD8DFE803F00E02050840F045001C
:10068000B4E740F04600B1E740F04700AEE740F085
:100690004800ABE7012063E77DA8000830B50446B9
:1006A0008FB00D4609B100230B802846FFF7AAFE44
:1006B00000283BD00720FFF709FE0120FFF732FE9C
:1006C00042231B488DF818308DF81A40002306ACE1
:1006D000E218195CD1700133102BF9D1154A10685A
:1006E0005168127A03AB03C31A7000238DF81530DA
:1006F00003A8E218C15CD17401330A2BF9D11B2382
:1007000000228DF819301346A15C01320B441D2ADA
:10071000DBB2F9D18DF83530002300951A461E2141
:100720002046FFF704FF003018BF01200FB030BD96
:100730006DA80008C4A700081FB500230293044653
:100740000393029BA34208D34120FFF7AFFD0A2089
:1007500006F022FA039804B010BD029B03F0DA03FE
:1007600043F001038DF806309DF80600FFF79EFD6B
:100770000A2006F011FAFFF789FD8DF805009DF8B3
:1007800005209DF806309A42039B0BBF0133DBB274
:1007900003938DF80730029B01330293D1E71FB515
:1007A00002930023CDE9003309F0A6F905B05DF806
:1007B00004FB2DE9FF410B9C05460E460B482146E4
:1007C00017469846FFF7A2FE68B9BDF82830029494
:1007D000CDE900833A4601233146284609F08CF9D9
:1007E00004B0BDE8F0810020FAE700BF9FA8000830
:1007F0002DE9FF410B9C05460E46174698460CB165
:100800000023238021460A48FFF780FE68B9BDF81F
:1008100028300294CDE900833A4601233146284628
:1008200009F06AF904B0BDE8F0810020FAE700BFE2
:10083000EFA8000870B505468AB00E4614460AB106
:10084000002313802046FFF7DDFDD8B10720FFF716
:100850003DFD0120FFF766FD40F21623ADF808309C
:100860008DF80B60002318368DF80A50009435443B
:100870001A46052102A88DF80C50FFF758FE0030EB
:1008800018BF01200AB070BD81F0004102E000BF36
:1008900083F0004330B54FEA41044FEA430594EA40
:1008A000050F08BF90EA020F1FBF54EA000C55EA7B
:1008B000020C7FEA645C7FEA655C00F0E2804FEA4C
:1008C0005454D4EB5555B8BF6D420CDD2C4480EA2E
:1008D000020281EA030382EA000083EA010180EA5E
:1008E000020281EA0303362D88BF30BD11F0004FAC
:1008F0004FEA01314FF4801C4CEA113102D04042E2
:1009000061EB410113F0004F4FEA03334CEA13331C
:1009100002D0524263EB430394EA050F00F0A78034
:10092000A4F10104D5F1200E0DDB02FA0EFC22FA2F
:1009300005F2801841F1000103FA0EF2801843FA23
:1009400005F359410EE0A5F120050EF1200E012A14
:1009500003FA0EFC28BF4CF0020C43FA05F3C01852
:1009600051EBE37101F0004507D54FF0000EDCF1CB
:10097000000C7EEB00006EEB0101B1F5801F1BD374
:10098000B1F5001F0CD349085FEA30004FEA3C0C78
:1009900004F101044FEA445212F5800F80F09A806E
:1009A000BCF1004F08BF5FEA500C50F1000041EB72
:1009B000045141EA050130BD5FEA4C0C404141EB76
:1009C0000101013C28BFB1F5801FE9D291F0000F71
:1009D00004BF01460020B1FA81F308BF2033A3F120
:1009E0000B03B3F120020CDA0C3208DD02F1140C17
:1009F000C2F10C0201FA0CF021FA02F10CE002F152
:100A00001402D8BFC2F1200C01FA02F120FA0CFC4A
:100A1000DCBF41EA0C019040E41AA2BF01EB045193
:100A2000294330BD6FEA04041F3C1CDA0C340EDC91
:100A300004F11404C4F1200220FA04F001FA02F3D4
:100A400040EA030021FA04F345EA030130BDC4F192
:100A50000C04C4F1200220FA02F001FA04F340EA87
:100A60000300294630BD21FA04F0294630BD94F038
:100A7000000F83F4801306BF81F480110134013D1F
:100A80004EE77FEA645C18BF7FEA655C29D094EA90
:100A9000050F08BF90EA020F05D054EA000C04BF0E
:100AA0001946104630BD91EA030F1EBF00210020F9
:100AB00030BD5FEA545C05D14000494128BF41F098
:100AC000004130BD14F580043CBF01F5801130BDFC
:100AD00001F0004545F0FE4141F470014FF0000087
:100AE00030BD7FEA645C1ABF194610467FEA655C38
:100AF0001CBF0B46024650EA013406BF52EA0335DA
:100B000091EA030F41F4002130BD00BF90F0000FC7
:100B100004BF0021704730B54FF4806404F1320403
:100B20004FF000054FF0000150E700BF90F0000FBC
:100B300004BF0021704730B54FF4806404F13204E3
:100B400010F0004548BF40424FF000013EE700BFB3
:100B500042004FEAE2014FEA31014FEA02701FBF43
:100B600012F07F4393F07F4F81F06051704732F075
:100B70007F4208BF704793F07F4F04BF41F40021CC
:100B8000704730B54FF4607401F0004521F000412A
:100B90001CE700BF50EA010208BF704730B54FF0B4
:100BA00000050AE050EA010208BF704730B511F0B5
:100BB000004502D5404261EB41014FF4806404F1ED
:100BC00032045FEA915C3FF4D8AE4FF003025FEA73
:100BD000DC0C18BF03325FEADC0C18BF033202EBF7
:100BE000DC02C2F1200300FA03FC20FA02F001FA51
:100BF00003FE40EA0E0021FA02F11444BDE600BFF4
:100C000070B54FF0FF0C4CF4E06C1CEA11541DBFA2
:100C10001CEA135594EA0C0F95EA0C0F00F0DEF86D
:100C20002C4481EA030621EA4C5123EA4C5350EA52
:100C3000013518BF52EA033541F4801143F48013A3
:100C400038D0A0FB02CE4FF00005E1FB02E506F034
:100C50000042E0FB03E54FF00006E1FB03569CF089
:100C6000000F18BF4EF0010EA4F1FF04B6F5007F8F
:100C700064F5407404D25FEA4E0E6D4146EB060601
:100C800042EAC62141EA55514FEAC52040EA5E508A
:100C90004FEACE2EB4F1FD0C88BFBCF5E06F1ED834
:100CA000BEF1004F08BF5FEA500E50F1000041EB6B
:100CB000045170BD06F0004646EA010140EA020018
:100CC00081EA0301B4EB5C04C2BFD4EB0C0541EA3A
:100CD000045170BD41F480114FF0000E013C00F34F
:100CE000AB8014F1360FDEBF002001F0004170BD73
:100CF000C4F10004203C35DA0C341BDC04F114048C
:100D0000C4F1200500FA05F320FA04F001FA05F217
:100D100040EA020001F0004221F0004110EBD370E4
:100D200021FA04F642EB06015EEA430E08BF20EA10
:100D3000D37070BDC4F10C04C4F1200500FA04F3B3
:100D400020FA05F001FA04F240EA020001F0004145
:100D500010EBD37041F100015EEA430E08BF20EAB8
:100D6000D37070BDC4F1200500FA05F24EEA020E00
:100D700020FA04F301FA05F243EA020321FA04F02F
:100D800001F0004121FA04F220EA020000EBD370E6
:100D90005EEA430E08BF20EAD37070BD94F0000FE6
:100DA0000FD101F00046400041EB010111F4801F1A
:100DB00008BF013CF7D041EA060195F0000F18BFCB
:100DC000704703F00046520043EB030313F4801F07
:100DD00008BF013DF7D043EA0603704794EA0C0FC1
:100DE0000CEA135518BF95EA0C0F0CD050EA4106D7
:100DF00018BF52EA4306D1D181EA030101F0004154
:100E00004FF0000070BD50EA410606BF104619467B
:100E100052EA430619D094EA0C0F02D150EA013687
:100E200013D195EA0C0F05D152EA03361CBF1046C8
:100E300019460AD181EA030101F0004141F0FE4167
:100E400041F470014FF0000070BD41F0FE4141F4EB
:100E5000780170BD70B54FF0FF0C4CF4E06C1CEAEB
:100E600011541DBF1CEA135594EA0C0F95EA0C0FA0
:100E700000F0A7F8A4EB050481EA030E52EA03355B
:100E80004FEA013100F088804FEA03334FF080557C
:100E900045EA131343EA12634FEA022245EA1115A9
:100EA00045EA10654FEA00260EF000419D4208BF5A
:100EB000964244F1FD0404F5407402D25B084FEA07
:100EC0003202B61A65EB03055B084FEA32024FF4B3
:100ED00080104FF4002CB6EB020E75EB030E22BF10
:100EE000B61A754640EA0C005B084FEA3202B6EBD0
:100EF000020E75EB030E22BFB61A754640EA5C007F
:100F00005B084FEA3202B6EB020E75EB030E22BF0E
:100F1000B61A754640EA9C005B084FEA3202B6EB0F
:100F2000020E75EB030E22BFB61A754640EADC00CE
:100F300055EA060E18D04FEA051545EA16754FEA30
:100F400006164FEAC30343EA52734FEAC2025FEA4E
:100F50001C1CC0D111F4801F0BD141EA00014FF0DD
:100F600000004FF0004CB6E711F4801F04BF0143AE
:100F70000020B4F1FD0C88BFBCF5E06F3FF6AFAECA
:100F8000B5EB030C04BFB6EB020C5FEA500C50F15A
:100F9000000041EB045170BD0EF0004E4EEA1131DD
:100FA00014EB5C04C2BFD4EB0C0541EA045170BDE4
:100FB00041F480114FF0000E013C90E645EA060E28
:100FC0008DE60CEA135594EA0C0F08BF95EA0C0F56
:100FD0003FF43BAF94EA0C0F0AD150EA01347FF49E
:100FE00034AF95EA0C0F7FF425AF104619462CE775
:100FF00095EA0C0F06D152EA03353FF4FDAE1046D8
:10100000194622E750EA410618BF52EA43067FF428
:10101000C5AE50EA41047FF40DAF52EA43057FF4B8
:10102000EBAE12E74FEA4102B2F1E04324BFB3F561
:10103000001CDCF1FE5C0DD901F0004C4FEAC0024F
:101040004CEA5070B2F1004F40EB830008BF20F033
:101050000100704711F0804F21D113F13872BCBFED
:1010600001F00040704741F480114FEA5252C2F142
:101070001802C2F1200C10FA0CF320FA02F018BF8B
:1010800040F001004FEAC1234FEAD32303FA0CFCDE
:1010900040EA0C0023FA02F34FEA4303CCE77FEA6D
:1010A000625307D150EA01331EBF4FF0FE4040F4B7
:1010B0004000704701F0004040F0FE4040F4000066
:1010C000704700BF53B94AB9002908BF00281CBFA8
:1010D0004FF0FF314FF0FF3000F074B9ADF1080C64
:1010E0006DE904CE00F006F8DDF804E0DDE9022346
:1010F00004B070472DE9F047089D04468E46002B4A
:101100004DD18A42944669D9B2FA82F252B101FABB
:1011100002F3C2F1200120FA01F10CFA02FC41EACB
:10112000030E94404FEA1C48210CBEFBF8F61FFA50
:101130008CF708FB16E341EA034306FB07F19942EB
:101140000AD91CEB030306F1FF3080F01F8199429E
:1011500040F21C81023E63445B1AA4B2B3FBF8F078
:1011600008FB103344EA034400FB07F7A7420AD9FF
:101170001CEB040400F1FF3380F00A81A74240F227
:1011800007816444023840EA0640E41B00261DB192
:10119000D4400023C5E900433146BDE8F0878B42C7
:1011A00009D9002D00F0EF800026C5E90001304686
:1011B0003146BDE8F087B3FA83F6002E4AD18B4260
:1011C00002D3824200F2F980841A61EB030301200A
:1011D0009E46002DE0D0C5E9004EDDE702B9FFDEF6
:1011E000B2FA82F2002A40F09280A1EB0C014FEAA1
:1011F0001C471FFA8CFE0126200CB1FBF7F307FBFE
:10120000131140EA01410EFB03F0884208D91CEBA0
:10121000010103F1FF3802D2884200F2CB8043463D
:10122000091AA4B2B1FBF7F007FB101144EA01441C
:101230000EFB00FEA64508D91CEB040400F1FF31AB
:1012400002D2A64500F2BB800846A4EB0E0440EA99
:1012500003409CE7C6F12007B34022FA07FC4CEAA2
:10126000030C20FA07F401FA06F31C43F9404FEA95
:101270001C4900FA06F3B1FBF9F8200C1FFA8CFEAA
:1012800009FB181140EA014108FB0EF0884202FAFE
:1012900006F20BD91CEB010108F1FF3A80F08880BF
:1012A000884240F28580A8F102086144091AA4B27C
:1012B000B1FBF9F009FB101144EA014100FB0EFEFD
:1012C0008E4508D91CEB010100F1FF346CD28E452C
:1012D0006AD90238614440EA0840A0FB0294A1EBBD
:1012E0000E01A142C846A64656D353D05DB1B3EB1A
:1012F000080261EB0E0101FA07F722FA06F3F1404A
:101300001F43C5E9007100263146BDE8F087C2F1F0
:101310002003D8400CFA02FC21FA03F39140014368
:101320004FEA1C471FFA8CFEB3FBF7F007FB1036A1
:101330000B0C43EA064300FB0EF69E4204FA02F44D
:1013400008D91CEB030300F1FF382FD29E422DD9A0
:10135000023863449B1B89B2B3FBF7F607FB1633D5
:1013600041EA034106FB0EF38B4208D91CEB010155
:1013700006F1FF3816D28B4214D9023E6144C91AD5
:1013800046EA004638E72E46284605E70646E3E6E5
:101390001846F8E64B45A9D2B9EB020864EB0C0EEF
:1013A0000138A3E74646EAE7204694E74046D1E7FE
:1013B000D0467BE7023B614432E7304609E76444AC
:1013C000023842E7704700BF844641EA000313F049
:1013D00003036DD1403A41D351F8043B40F8043B3C
:1013E00051F8043B40F8043B51F8043B40F8043BFF
:1013F00051F8043B40F8043B51F8043B40F8043BEF
:1014000051F8043B40F8043B51F8043B40F8043BDE
:1014100051F8043B40F8043B51F8043B40F8043BCE
:1014200051F8043B40F8043B51F8043B40F8043BBE
:1014300051F8043B40F8043B51F8043B40F8043BAE
:1014400051F8043B40F8043B51F8043B40F8043B9E
:1014500051F8043B40F8043B403ABDD2303211D33E
:1014600051F8043B40F8043B51F8043B40F8043B7E
:1014700051F8043B40F8043B51F8043B40F8043B6E
:10148000103AEDD20C3205D351F8043B40F8043B3E
:10149000043AF9D2043208D0D2071CBF11F8013B3C
:1014A00000F8013B01D30B8803806046704700BF02
:1014B000082A13D38B078DD010F003038AD0C3F111
:1014C0000403D21ADB071CBF11F8013B00F8013BF3
:1014D00080D331F8023B20F8023B7BE7043AD9D3B2
:1014E000013A11F8013B00F8013BF9D20B78037087
:1014F0004B7843708B788370604670470000000023
:10150000A2EB0300704700BF02780B78012A28BFC6
:101510009A42F5D16DE9044540EA0104CDE902673C
:101520006FF0000C4FEA447212B380EA010414F029
:10153000070F6AD100F0070420F0070004F003054C
:1015400021F007014FEAC505F0E8042314F0040F69
:10155000F1E804670CFA05F462EA040266EA04069C
:101560000AD063EA0403624667EA0407664603E0BA
:10157000F0E80423F1E8046782FA4CF582EA0604F5
:10158000A4FA8CF46CBB83FA4CF583EA0705A5FA40
:101590008CF595B950E9022351E9026782FA4CF5BE
:1015A00082EA0604A4FA8CF483FA4CF583EA070570
:1015B000A5FA8CF52543DBD09CB92DBAB5FA85F494
:1015C00024F0070427FA04F1DDE9026723FA04F3A3
:1015D00003F0FF0001F0FF01FDE80445A0EB01006E
:1015E000704724BAB4FA84F424F0070426FA04F10C
:1015F000DDE9026722FA04F202F0FF0001F0FF01C8
:10160000FDE80445A0EB0100704714F0030F3CD146
:1016100010F0030428D150F8082B51F8083B82FA47
:101620004CF582EA0305A5FA8CF55DB950F8042C57
:1016300051F8043C82FA4CF582EA0305A5FA8CF5D0
:10164000002DE8D02DBAB5FA85F424F0070423FA6A
:1016500004F122FA04F202F0FF0001F0FF01FDE8BC
:101660000445A0EB010070474FEAC40420F00300DA
:1016700050F8082B21F0030151F8083B0CFA04F450
:1016800062EA040263EA0403C9E710F003041AD013
:10169000A1EB040120F00300E40750F8042B06D06E
:1016A0000FD28B785FFAA2F4E41A06D12BB1CB7873
:1016B0005FFAB2F4E41A00D11BB920465DF8104B72
:1016C000704701F1040150F8042BCC0721F003010D
:1016D00051F8043B48D824D222F07F4482FA4CF5DA
:1016E00094EA1325A5FA8CF50AD165B951F8043BA3
:1016F00084EA0204B4EB036F0ED150F8042BEBE73D
:101700004FEA132355E035F07F454DD10878FDE8C9
:101710000445C0F1000070474FEA126203F0FF0376
:1017200047E002EA1C4482FA4CF594EA1345A5FA14
:101730008CF50AD165B951F8043B84EA0204B4EB94
:10174000034F0CD150F8042BEBE74FEA134330E082
:1017500015EA1C4528D10B884FEA124229E04FEACE
:10176000124203EA1C4324E002F0FF0482FA4CF523
:1017700094EA1365A5FA8CF50AD165B951F8043BD2
:1017800084EA0204B4EB032F09D150F8042BEBE7F1
:101790004FEA13630DE015F0FF0F05D10B684FEA18
:1017A000122223F07F4304E04FF00000FDE80445DF
:1017B000704712BA1BBA82FA4CF482EA0304A4FA04
:1017C0008CF5B5FA85F402FA04F203FA04F34FEA51
:1017D0001260FDE80445A0EB1360704710F4000FA1
:1017E00002D000F17F4001307047000000B587B0A3
:1017F0008DF80F0000238DF817304FF6FF7300931C
:1018000001230DF117020DF10F01044803F06FFBE6
:101810009DF8170007B05DF804FB00BF30110020F1
:1018200038B50446074D00220146284602F0C7F9A4
:101830001120FFF7DBFF01222146284602F0BFF905
:1018400038BD00BF0010024038B50446074D0022E5
:101850000146284602F0B3F90820FFF7C7FF01222E
:101860002146284602F0ABF938BD00BF0010024007
:1018700038B504460A4D00220146284602F09FF979
:101880000A2001F023FB0620FFF7B0FF0A2001F039
:101890001DFB01222146284602F091F938BD00BF08
:1018A00000100240F8B504460D4600F12006F6B2DD
:1018B0000B4F0022384602F082F93046FFF796FFC0
:1018C0000020FFF793FF0020FFF790FF054E3055F3
:1018D00001222946384602F072F9305DF8BD00BF9A
:1018E00000100240CC040020F8B507460E4600F177
:1018F0002004E4B200224FF480510D4802F05FF959
:101900002046FFF773FF3046FFF770FF002406E024
:101910003D190020FFF76AFF064B58550134A642D7
:10192000F6DA01224FF48051014802F048F9F8BD7F
:1019300000100240CC0400202DE9F04104460D4681
:10194000164600F14007FFB2DFF83480002231462E
:10195000404602F034F93846FFF748FF0020FFF711
:1019600045FF2846FFF742FF01223146404602F07C
:1019700026F9024B1D55BDE8F08100BFCC040020C4
:101980000010024010B5002008E0814A02EBC002BE
:101990000021D1540133072BF7DD0130032801DC8E
:1019A0000023F8E700230AE0794AAA2102F833105D
:1019B000591C02EBC3025170BB21D1710133032BBF
:1019C000F2DD744C01224FF48071204602F0F7F8EA
:1019D00001224FF48051204602F0F1F801224FF429
:1019E0000041204602F0EBF801224FF480412046EE
:1019F00002F0E5F801224FF48061204602F0DFF8A2
:101A000001224FF40071204602F0D9F84FF47A70A9
:101A100001F05CFA14E04FF48070FFF729FF4FF4F7
:101A2000FA7001F053FA4FF48070FFF7F9FE4FF4AB
:101A3000FA7001F04BFA4FF480710020FFF732FF8B
:101A4000554B1B783C2BE6D114E04FF48050FFF748
:101A50000FFF4FF4FA7001F039FA4FF48050FFF79E
:101A6000DFFE4FF4FA7001F031FA4FF4805100209C
:101A7000FFF718FF484B1B783C2BE6D14FF4FA7068
:101A800001F024FA4FF48052D5210120FFF754FFD2
:101A90004FF4807286210120FFF74EFF642001F091
:101AA00015FA4FF48052D2210220FFF745FF4FF480
:101AB000807212210220FFF73FFF642001F006FA36
:101AC0004FF48052EC210320FFF736FF4FF4807271
:101AD000CC210320FFF730FF642001F0F7F94FF429
:101AE000805240210520FFF727FF4FF480725021DC
:101AF0000520FFF721FF0A2001F0E8F94FF480727A
:101B0000F0210620FFF718FF0A2001F0DFF94FF45B
:101B10008072F0210720FFF70FFF0A2001F0D6F9AD
:101B20004FF48072F0210820FFF706FF0A2001F031
:101B3000CDF94FF4805201210D20FFF7FDFE4FF447
:101B4000807207210D20FFF7F7FE0A2001F0BEF991
:101B50004FF4805201210E20FFF7EEFE4FF4807209
:101B600007210E20FFF7E8FE08210020FFF7BCFE4A
:101B70004FF47A7001F0AAF94FF48070FFF764FE19
:101B80004FF48050FFF760FE642001F09FF910BD14
:101B9000A804002000100240CC04002070B50023EF
:101BA000394A1360394A136004E0394A002142F887
:101BB00023100133032BF8DD00224FF48051354808
:101BC00001F0FDFF1220FFF711FE0024022C09DCBA
:101BD0000020FFF70BFE2C4B1A6840EA0220186029
:101BE0000134F3E70025002D11DD2A4C01224FF4CA
:101BF0008051204601F0E3FF00224FF4807120461F
:101C000001F0DDFF1220FFF7F1FD00241CE00020B1
:101C1000FFF7ECFD06460020FFF7E8FD0446002034
:101C2000FFF7E4FD240244EA06440443184B43F85A
:101C300025400135D7E70020FFF7D8FD134B1A6880
:101C400040EA022018600134022CF4DD012512E084
:101C50000020FFF7CBFD06460020FFF7C7FD044636
:101C60000020FFF7C3FD240244EA06440443084B66
:101C700043F825400135032DEADD01224FF4807140
:101C8000044801F09CFF70BDE4040020E80400203B
:101C9000780400200010024010B5002408E01F4B1B
:101CA00053F82400FFF79AFD1D4B43F8240001343C
:101CB000032CF4DD00210CE0981C194A02EB810290
:101CC000D45C184A02EBC10214540133032BF3DD38
:101CD0000131012901DC0023F8E7134B1B6823B114
:101CE000104B01225A75002215E00E4B00225A7546
:101CF000F9E70B4800EB82014B788C782344C978D4
:101D000051FA83F310F8221051FA83F3054901EBDD
:101D1000C2018B710132032AEBDD10BD7804002073
:101D200098040020A8040020C804002000B585B055
:101D3000002300930193029303931648164A02600E
:101D40004FF480324260836001220261037680F8A2
:101D500020304FF08051C1624FF040718162C3600A
:101D6000C26180F83020426101F05EF960B9002361
:101D700000930122019202936946064801F09AFA03
:101D800028B905B05DF804FB00F074FCEFE700F043
:101D900071FCF6E7040C00200020014000B585B07E
:101DA000002300930193029303931648164A02609E
:101DB0004FF480324260836001220261037680F832
:101DC00020304FF08051C1624FF0E0618162C3600A
:101DD000C26180F83020426101F026F960B9012328
:101DE00000930193002302936946064801F062FACA
:101DF00028B905B05DF804FB00F03CFCEFE700F00B
:101E000039FCF6E74C0C00200021014030B58BB0C6
:101E100004460023059306930793089309930368E8
:101E2000414A934204D0414A93423FD00BB030BD67
:101E3000002501953E4B5A6C42F480725A645A6CEC
:101E400002F480720192019A02951A6B42F001022B
:101E50001A631B6B03F001030293029B012305939A
:101E60000323069305A9334801F0B0FD3248334BF4
:101E7000036045608560C5604FF4806303614FF483
:101E8000006343614FF4005383614FF48073C36177
:101E90004FF400330362456201F0B0FB18B9264BE2
:101EA000A3639C63C2E700F0E5FBF8E70025039518
:101EB0001F4B5A6C42F400725A645A6C02F400725E
:101EC0000392039A04951A6B42F001021A631B6B8A
:101ED00003F001030493049B022305930323069359
:101EE00005A9144801F072FD1548164B03604FF028
:101EF000007343608560C5604FF4806303614FF4F5
:101F0000006343614FF4005383614FF48073C361F6
:101F10000562456201F072FB18B9094BA3639C632B
:101F200084E700F0A7FBF8E7002001400021014012
:101F30000038024000000240940C0020706402400F
:101F4000F40C00204064024038B5254B1888FEF799
:101F5000EDFD1FA3D3E90023FEF752FE1EA3D3E934
:101F60000023FEF777FF1F4D2C78FFF75BF81E4B21
:101F700003EB840318600134E4B22C70032C1FD9E6
:101F800000222A70184B93ED037AD3ED027AB4EE57
:101F9000E77AF1EE10FA0DDD93ED017AF4EEC77AEF
:101FA000F1EE10FA06DDD3ED007AB4EEE77AF1EE49
:101FB00010FA06DC01224FF480610C4801F0FFFDAD
:101FC00038BD4FF48061094801F0F9FDF8E700BF22
:101FD0006666666666660A400000000000FEAF4066
:101FE00014080020640D0020540D0020000C024055
:101FF00008B504210A4803F0A5FB40F28F120949F5
:10200000094801F03DF8094B00221A600123084AF3
:102010001360084AAB211170074A136008BD00BF66
:1020200080120020F0040020040C0020E80F0020A3
:10203000000C002018080020680D00201C4B1B68B5
:10204000D3B970471B4B33F811201B4803681B4C56
:10205000E25403F1010C120A04F80C20023303606D
:102060000131B1F5C77FEDDD134B1A6840F21F3324
:102070009A4205D004B010BD10B584B00021F0E73D
:102080000E4CBB2384F81F330B4B01221A6006F061
:1020900029FB00230293019300934FF47A724FF4CB
:1020A0004871204608F002F906F0BEFBE2E700BFE7
:1020B000680D0020F0040020000C0020180800200B
:1020C00010B50446094B984203D0094B9C4208D0F6
:1020D00010BD084B186804F0B6FF074B01221A60C8
:1020E000F3E7064B01221A60F2E700BF040C002060
:1020F0004C0C0020740D0020EC040020100800207F
:1021000010B582B0002400941E4B1A6B42F480027A
:102110001A631A6B02F480020092009A01941A6BFF
:1021200042F400121A631B6B03F400130193019B2A
:10213000224606210B2001F09BF90B2001F0D0F97B
:10214000224607210C2001F093F90C2001F0C8F978
:1021500022460621102001F08BF9102001F0C0F971
:10216000224606213A2001F083F93A2001F0B8F91D
:10217000224605213C2001F07BF93C2001F0B0F91A
:1021800002B010BD0038024008B51D4B186804F0BD
:102190005AFF1C4B186804F056FF1B4B186804F0DC
:1021A00052FF1A4C01224FF48071204601F007FDC6
:1021B00001224FF48061204601F001FD01224FF41D
:1021C0000061204601F0FBFC04F032FD04F0F8FD54
:1021D000FFF7D8FBFFF70CFF06F0EEFD00210C48DF
:1021E00003F0B0FA01220B490B4800F049FF0B4BFA
:1021F000186804F0C9FE012004F0CBFEFBE700BF25
:10220000700D0020740D0020880D0020000C02408D
:10221000C8120020140800204C0C0020800D002063
:1022200008B5012004F0B5FEFBE7000008B54FF04B
:10223000FF31044B186804F0D7FEFFF7FFFE06F0ED
:10224000E1FDF4E7740D002030B5ADF54F7D0024BD
:10225000ADF836432CE004F0D5FD0A2004F099FED9
:1022600039E0274A02EBC002D15C05AA11550134BE
:102270000133072BF5DD0130012801DC0023F8E7ED
:10228000B4F5487F29D01F4B1B6833B11D4B00228A
:102290001A6006F0F5FDFFF757FE4FF48050FFF788
:1022A000D3FA4FF48070FFF7CFFA012004F071FEEB
:1022B0004FF0FF31144B186804F096FE134B1D6964
:1022C00015F08005FAD1FFF769FCFFF7E5FC104B2C
:1022D0001B68002BBFD00020CEE706F003FA0DF2FA
:1022E000363302930023019300934FF4FA624FF4C4
:1022F000487105A807F0DAFF06F096FA2C46C2E707
:10230000A804002010080020700D002000100240DA
:10231000840D0020034B0360034B0B60802313608C
:10232000704700BF8C0F00208C0D002070B5A2B04C
:10233000002520952195012120A804F031FE2D4B88
:1023400018601E951F9501211EA804F029FE2A4E33
:1023500030601C951D9501211CA804F021FE274B1F
:102360001860274C0DF1540CA646BEE80F00ACE8EF
:102370000F009EE807008CE80700294615A804F026
:10238000CEFD204B18600DF1380C04F11C0EBEE898
:102390000F00ACE80F009EE807008CE80700294614
:1023A0000EA804F0BCFD184B18600DF11C0C04F1D4
:1023B000380EBEE80F00ACE80F009EE807008CE87E
:1023C0000700294607A804F0AAFD104B1860EE4646
:1023D00004F1540CBCE80F00AEE80F009CE80700C5
:1023E0008EE807003168684604F099FD084B1860D4
:1023F00022B070BD740D0020700D0020880D0020EB
:1024000044A70008800D00207C0D0020780D0020DE
:102410006C0D00202DE9F0478CB00024079408943F
:1024200009940A940B940194774B1A6B42F0800242
:102430001A631A6B02F080020192019A02941A6BDD
:1024400042F001021A631A6B02F001020292029A30
:1024500003941A6B42F004021A631A6B02F004022E
:102460000392039A04941A6B42F010021A631A6BD7
:1024700002F010020492049A05941A6B42F00202D0
:102480001A631A6B02F002020592059A06941A6BFF
:1024900042F008021A631B6B03F008030693069BC5
:1024A000DFF8748122464FF47741404601F087FB04
:1024B000DFF868A101224FF48051504601F07FFB04
:1024C000524E22464FF6C071304601F078FB504F15
:1024D00001224FF40071384601F071FB22464FF49F
:1024E0000041384601F06BFB1023079308940994D0
:1024F00007A9484801F06AFA8023079308944FF02F
:102500000209CDF8249007A9404601F05FFA4FF484
:10251000885307930125089509940A9407A9404612
:1025200001F054FA4FF4664307930895CDF82490D0
:102530000A9407A9404601F049FA4FF40063079353
:102540004FF404130893CDF8249007A9404601F0F6
:102550003DFA4FF48058CDF81C80089509940A94F0
:1025600007A9504601F032FA4FF470630793112324
:10257000089309940A9407A9304601F027FACDF888
:102580001C80089509940A9407A9304601F01EFAA8
:102590004FF460430793089509950A9407A93046BC
:1025A00001F014FA4FF4807307930894099407A973
:1025B000384601F00BFA4FF400730793089509941D
:1025C0000A9407A9384601F001FA4FF40043079333
:1025D000089509950A9407A9384601F0F7F9C02330
:1025E000079308950994CDF8289007A9304601F083
:1025F000EDF922460521282000F03AFF282000F0BE
:102600006FFF0CB0BDE8F08700380240000C0240BC
:102610000000024000080240001002400004024096
:1026200082B000EB4000C0EBC000019000BF019BF6
:102630005A1E0192002BF9D102B07047B0F5006F1D
:1026400000D0704700B583B001A9034B186805F0AE
:1026500069FB03B05DF804FB700D002008B502684B
:10266000034B9A4200D008BD00F01EFCFBE700BF00
:102670000000014072B6FEE700B595B0302200219F
:1026800008A807F091FF0023039304930593069392
:1026900007930193204A116C41F080511164126C30
:1026A00002F080520192019A02931C4B1A6842F484
:1026B00080421A601B6803F480430293029B01234B
:1026C00008934FF48033099302230E934FF4800252
:1026D0000F9204221092A8221192129307231393AF
:1026E00008A801F081FA98B90F23039302230493F9
:1026F000002305934FF4A05306934FF480530793A0
:10270000052103A801F0D6FC20B915B05DF804FB43
:10271000FFF7B0FFFFF7AEFF003802400070004047
:1027200008B500F0A7FBFFF7A7FFFFF773FEFFF761
:10273000E7FCFFF7FBFAFFF731FB00F075FA00F05A
:10274000B3FA00F01BFB00F06DF800F08DF800F01C
:10275000ABF800F007F804F061F8FFF7E7FD04F0CC
:10276000C6FBFEE7054B064A1A6000225A609A60D3
:10277000DA601A615A6160229A617047EC0F00209A
:10278000002C0140F0B589B0002303930493059316
:10279000069307930268204B9A4201D009B0F0BD1E
:1027A0000024009403F586335A6C42F400625A64A4
:1027B0005A6C02F400620092009A01941A6B42F083
:1027C00004021A631A6B02F004020192019A029445
:1027D0001A6B42F008021A631B6B03F008030293A2
:1027E000029B4FF4F853039302270497032606969F
:1027F0000C2507950DEB0501084801F0E7F80423C7
:10280000039304970594069607950DEB050104487C
:1028100001F0DCF8C2E700BF002C014000080240D4
:10282000000C024008B50E480E4B03604FF4827353
:10283000436000238360C3600361012242614FF45F
:10284000007282612022C2610362436283620A23B2
:10285000C36202F0EDFA00B908BDFFF70BFFFBE71A
:10286000301100200030014008B50D480D4B0360C9
:102870004FF48273436000238360C360036143614C
:102880004FF400728261C3610362436283620A2370
:10289000C36202F0CDFA00B908BDFFF7EBFEFBE71B
:1028A000881100200038004008B50E480E4B036028
:1028B0004FF48273436000238360C360036143610C
:1028C0004FF4007282610822C26103624362836234
:1028D0000A23C36202F0ACFA00B908BDFFF7CAFED2
:1028E000FBE700BFE0110020003C004030B58DB098
:1028F00000230793089309930A930B930368574A9D
:10290000934208D00446564A934227D0554A9342F0
:1029100048D00DB030BD00210191534B5A6C42F4A8
:1029200080525A645A6C02F480520192019A0291C8
:102930001A6B42F001021A631B6B03F0010302934E
:10294000029BE02307930223089303230A930523A2
:102950000B9307A9454801F039F8DAE70021039104
:10296000414B1A6C42F480421A641A6C02F48042A1
:102970000392039A04911A6B42F002021A631B6BD2
:1029800003F002030493049B4FF460430793022374
:10299000089303230A9305230B9307A9344801F0F6
:1029A00015F8B6E7002505952F4B1A6C42F4004246
:1029B0001A641A6C02F400420592059A06951A6B85
:1029C00042F002021A631B6B03F002030693069B9C
:1029D000382307930223089303230A9306230B93B8
:1029E00007A9234800F0F2FF2248234B036045600B
:1029F0008560C5604FF480630361456185614FF474
:102A00008073C3614FF440330362456200F0F6FD0A
:102A1000E8B9184BE3649C631848194B0360002322
:102A2000436040228260C3604FF480620261436170
:102A300083614FF48072C2614FF44032026243629C
:102A400000F0DCFD30B90D4BA3649C6361E7FFF738
:102A500011FEDEE7FFF70EFEF5E700BF0030014094
:102A600000380040003C00400038024000000240B6
:102A7000000402407010002010600240D0100020BE
:102A80008860024000B583B0002200920D4B596C63
:102A900041F480415964596C01F4804100910099DE
:102AA0000192196C41F0805119641B6C03F0805342
:102AB0000193019B0F216FF0010000F0D9FC03B0DE
:102AC0005DF804FB0038024010B588B001460022D2
:102AD000192000F0CDFC192000F002FD0024019423
:102AE000144B5A6C42F001025A645B6C03F0010310
:102AF0000193019B02A903A801F0B2FB01F0A0FB26
:102B000043000D48A0FB03239B0C013B0B480C4AE0
:102B1000026040F2E732C26043600461846002F008
:102B200003FD10B1012008B010BD044802F092FB73
:102B3000F9E700BF0038024083DE1B433812002053
:102B400000000140FEE7FEE7FEE7FEE7FEE7704714
:102B500008B5024800F04AFE08BD00BF7010002012
:102B600008B5024800F042FE08BD00BF1013002067
:102B700008B5024800F03AFE08BD00BFD0100020A2
:102B800008B5024802F0AEFB08BD00BF38120020B5
:102B900010B582B00F4B1B681B6813F0100F04D1E7
:102BA0000C4803F0B7F802B010BD0A4C204602F002
:102BB000B8FF094B01221A6064220849204603F03D
:102BC00093FA0023019323681A6801925B680193CA
:102BD000019BE5E7701300200C51002010510020EC
:102BE00008B54FF4006000F0F1FF08BD08B50248D9
:102BF00000F0FCFD08BD00BFF40C002008B5024841
:102C000000F0F4FD08BD00BF940C0020054BD3F884
:102C1000882042F47002C3F888204FF000629A6066
:102C2000704700BF00ED00E000B58BB000230893B3
:102C300009930193029303930493059306930793D7
:102C400018484FF08042026014224260836040F2D4
:102C5000F312C2600361836102F092FCC8B92023C1
:102C600008930023099308A90E4802F0EDFD98B9D6
:102C700060230193FA230293002303930593042214
:102C80000DEB0201074802F0DFFC40B90BB05DF824
:102C900004FBFFF7EFFCE2E7FFF7ECFCE8E7FFF7E8
:102CA000E9FCF3E78012002000B58BB00023089305
:102CB0000993019302930393049305930693079357
:102CC0001848194A026042F2CF024260836042F221
:102CD0000F72C2600361836102F052FCC0B920230D
:102CE00008930023099308A90E4802F0ADFD90B99E
:102CF0006023019341F288330293002203920592EC
:102D000001A9084802F0A0FC40B90BB05DF804FB33
:102D1000FFF7B0FCE3E7FFF7ADFCE9E7FFF7AAFC3C
:102D2000F3E700BFC81200200004004082B003682F
:102D3000B3F1804F04D00F4A93420ED002B07047D7
:102D4000002300930C4B1A6C42F001021A641B6CB6
:102D500003F001030093009BF0E700230193064B6F
:102D60001A6C42F002021A641B6C03F00203019316
:102D7000019BE3E7000400400038024008B50A4820
:102D80000A4B03604FF49653436000238360C36093
:102D900003610C2242618361C36102F093FE00B9BA
:102DA00008BDFFF767FCFBE77013002000480040F8
:102DB00030B589B0002303930493059306930793DA
:102DC0000268284B9A4201D009B030BD0446002564
:102DD000019503F5F8331A6C42F480221A641A6CD8
:102DE00002F480220192019A02951A6B42F00202CB
:102DF0001A631B6B03F002030293029B4FF44063C0
:102E0000039302230493032306930723079303A941
:102E1000154800F0DBFD1548154B03604FF00063CB
:102E200043608560C5604FF48063036145618561DF
:102E30004FF48073C3614FF480330362456200F046
:102E4000DDFB58B9094BA3639C63002207212720AF
:102E500000F00EFB272000F043FBB5E7FFF70AFC6C
:102E6000F0E700BF004800400004024010130020BB
:102E70002860024008B50B4B1A6842F400721A60D1
:102E80001A6842F480621A601A6842F480721A600A
:102E9000032000F0DBFA0020FFF716FEFFF7F2FD3B
:102EA000002008BD003C0240034A1168034B1B7818
:102EB0000B441360704700BFB413002004000020CF
:102EC000014B1868704700BFB413002038B50446A2
:102ED000FFF7F6FF0546B4F1FF3F02D0044B1B7825
:102EE0001C44FFF7EDFF401BA042FAD338BD00BFE2
:102EF000040000204A4B5A6822F440325A605A6853
:102F000041680A435A600268536823F4807353602F
:102F100002685368016943EA0123536002685368F9
:102F200023F0407353600268536881680B43536019
:102F30000268936823F40063936002689368C16831
:102F40000B439360826A374B9A4257D0026893686A
:102F500023F07063936002689368816A0B43936007
:102F60000268936823F04053936002689368C16AD3
:102F70000B4393600268936823F002039360026836
:102F80009368017E43EA4103936090F82030002B60
:102F90003FD00268536843F400635360026853688B
:102FA00023F46043536001684B68426A013A43EA84
:102FB00042334B600268D36A23F47003D362016822
:102FC000CB6AC269013A43EA0253CB620268936852
:102FD00023F4007393600268936890F8301043EA1A
:102FE000412393600268936823F4806393600268CE
:102FF0009368416943EA812393607047026893684C
:1030000023F0706393600268936823F040539360E9
:10301000B0E70268536823F400635360CAE700BF57
:10302000002301400100000F38B310B50446036CC3
:1030300043B1236C13F0100F0BD00120002384F850
:103040003C3010BDFEF7E2FE0023636484F83C30A0
:10305000EFE7236C23F4885323F0020343F00203C9
:1030600023642046FFF746FF00206064236C23F0B2
:10307000030343F001032364E0E7012070470000ED
:1030800010B582B013460022019290F83C20012A2C
:1030900000F0AE800446012280F83C20026890686F
:1030A00010F0010F13D1906840F001009060534A76
:1030B0001068534AA2FB0020800C00EB40000190F6
:1030C00002E001980138019001980028F9D12268A6
:1030D000906810F4807F03D0906820F48070906036
:1030E0002268906810F0010F77D0206C20F4E06027
:1030F00020F0010040F480702064526812F4806F68
:1031000005D0226C22F4405242F480522264226C98
:1031100012F4805F36D0626C22F0060262640022F4
:1031200084F83C20A26B3748D063A26B3648106409
:10313000A26B3648D06422686FF0220010602068CD
:10314000426842F0806242602068826842F4807285
:10315000826020680A4600F14C01A06B00F0B4FACE
:103160002B4B5B6813F01F0F27D12368294A93422A
:1031700011D002F58072934207D0274A934214D0AF
:10318000002033E000226264C9E702F50072526851
:1031900012F01F0FF1D19A6812F0405F2AD19A689D
:1031A00042F080429A60002020E002F5807252686E
:1031B00012F0100FEFD0002018E02368154A934258
:1031C00001D0002012E09A6812F0405F14D19A6892
:1031D00042F080429A60002008E0236C43F0100324
:1031E0002364636C43F001036364002002B010BDEC
:1031F0000220FBE70020F9E70020F7E700000020AD
:1032000083DE1B43413200081F3200082B320008C6
:10321000002301400020014000220140704708B512
:10322000806BFFF7FBFF08BD704708B5806B40233C
:103230000364436C43F004034364FFF7F5FF08BDE8
:1032400008B50346806B026C12F0500F25D1036C59
:1032500043F40073036403689A6812F0405F19D165
:10326000027EBAB9DA6A12F4700F03D09A6812F4C7
:10327000806F0FD15A6822F020025A60036C23F449
:1032800080730364036C13F4805F03D1036C43F019
:1032900001030364FEF714FF08BD026C12F0100F67
:1032A00004D1826BD26C18469047F5E7FFF7BCFF5C
:1032B000F2E7000030B482B00023019390F83C3074
:1032C000012B00F0BB80012380F83C300B68092BF8
:1032D00041D90468E2689BB203EB43031E3B4FF005
:1032E000070C0CFA03F322EA0303E3600468E268C4
:1032F0000B8803EB43031E3B8D6805FA03F313436E
:10330000E3604B68062B3DD80468626B03EB8303D4
:10331000053B4FF01F0C0CFA03F322EA030363632F
:103320000468626B4B6803EB8303053BB1F800C094
:103330000CFA03F3134363630268414B9A4251D082
:1033400002683F4B9A4256D0002380F83C30184622
:1033500002B030BC7047046822699BB203EB4303A0
:103360004FF0070C0CFA03F322EA0303236104680D
:1033700022690B8803EB43038D6805FA03F31343BB
:103380002361BEE70C2B16D805682A6B03EB830379
:10339000233B1F2404FA03F322EA03032B6305688B
:1033A0002A6B4B6803EB8303233B0C8804FA03F37B
:1033B00013432B63C0E70568EA6A03EB8303413BD1
:1033C0001F2404FA03F322EA0303EB620568EA6AA6
:1033D0004B6803EB8303413B0C8804FA03F313436C
:1033E000EB62A9E70B68122BAAD1164A536843F483
:1033F00080035360A4E70B68103B012BA4D8114A4B
:10340000536843F4000353600B68102B9CD10E4BA0
:103410001B6802F1467202F52E3202F28332A2FBE1
:1034200003239B0C03EB83035B00019302E0019BEE
:10343000013B0193019B002BF9D185E7022087E72F
:10344000002001400023014000000020074AD3680B
:1034500023F4E0631B041B0C000200F4E060034350
:1034600043F0BF6343F40033D360704700ED00E0E6
:1034700000B5194BDB68C3F30223C3F1070CBCF1A1
:10348000040F28BF4FF0040C03F1040EBEF1060F29
:1034900018D9033B4FF0FF3E0EFA0CFC21EA0C0159
:1034A00099400EFA03F322EA0303194300280BDBC9
:1034B0000901C9B200F1604000F5614080F80013D5
:1034C0005DF804FB0023E5E700F00F000901C9B235
:1034D000024B1954F4E700BF00ED00E014ED00E0EA
:1034E000002807DB00F01F02400901239340024A35
:1034F00042F82030704700BF00E100E030B40568BA
:103500002C6824F480242C60046863608368402B5A
:1035100005D0036899600368DA6030BC70470368BF
:103520009A600368D960F8E710B40368D9B210391B
:103530000C4AA2FB014212090B4CA25CC2655F2936
:1035400009D923F47F7323F0030304338365806D6B
:103550005DF8044B704723F47F7323F00303836506
:10356000F5E700BFABAAAAAA20A80008836A82696F
:1035700092B9012B0AD0022B02D00BB10020704768
:10358000C36A13F0807F28D100207047C36AB3F16B
:10359000C07F24D000207047B2F5005F09D0022B15
:1035A00025D9032B25D1C36A13F0807F23D10020B6
:1035B0007047032B03D8DFE803F01404140A00203B
:1035C0007047C36A13F0807F0DD100207047C36A33
:1035D000B3F1C07F09D0002070470120704701205F
:1035E000704701207047012070470120704701207B
:1035F00070470020704701207047000070B50446F6
:10360000FFF75EFC002C5BD00546022384F83530C2
:10361000002384F834302268136823F00103136018
:1036200023681A6812F0010F0AD0FFF749FC431B08
:10363000052BF5D920236365032084F8350070BD80
:103640001A68204810406168A2680A43E1680A438A
:1036500021690A4361690A43A1690A43E1690A438E
:10366000216A0A430243616A04291ED01A6026684F
:10367000756925F00705636A1D43042B07D1A36A0A
:103680001D43E36A1BB12046FFF770FF90B97561D7
:103690002046FFF749FFE26D3F23934083600020FF
:1036A0006065012384F83530C9E7E16A206B014386
:1036B0000A43DBE740236365012084F83500BEE759
:1036C0000120BCE73F8010F038B50446856D90F8C6
:1036D000340001282BD0012084F8340094F8350000
:1036E000C0B2012804D0002384F83430022038BD51
:1036F000022084F83500002060652046FFF7FEFEBA
:10370000E26D3F239340AB602268136843F01603D9
:103710001360236C23B12268136843F0080313601D
:103720002268136843F0010313600020DFE70220E2
:10373000DDE770B50446866DFFF7C2FB94F83530BF
:10374000DBB2022B06D080236365002384F834307B
:10375000012070BD05462268136823F0160313602C
:103760002268536923F080035361236CE3B122681C
:10377000136823F0080313602268136823F0010321
:10378000136023681B6813F0010F11D0FFF798FB3B
:10379000431B052BF5D920236365032084F83500EE
:1037A000002384F83430D4E7A36C002BDFD1E3E7A7
:1037B000E26D3F239340B360012384F8353000204D
:1037C00084F83400C5E790F83530DBB2022B03D023
:1037D0008023436501207047052380F83530026857
:1037E000136823F00103136000207047F0B583B025
:1037F000044600230193724B1D68724BA3FB0535F1
:10380000AD0A876D3E68C26D08239340334210D0E5
:1038100003681A6812F0040F0BD01A6822F0040231
:103820001A60C26D08239340BB60436D43F00103EF
:103830004365E26D01239340334209D02268526907
:1038400012F0800F04D0BB60636D43F00203636528
:10385000E26D04239340334209D02268126812F0CB
:10386000020F04D0BB60636D43F004036365E26D37
:1038700010239340334224D02268126812F0080FBC
:103880001FD0BB6023681A6812F4802F0DD01B680C
:1038900013F4002F04D1236C9BB12046984710E00D
:1038A000A36C73B1204698470BE01A6812F4807F2E
:1038B00003D11A6822F008021A60236C0BB120466B
:1038C0009847E26D20239340334255D02268126816
:1038D00012F0100F50D0BB6094F83530DBB2052BDE
:1038E0000ED023681A6812F4802F33D01B6813F4AB
:1038F000002F2AD1636C002B3ED0204698473BE036
:103900002268136823F0160313602268536923F0BA
:1039100080035361236CA3B12268136823F008036A
:103920001360E26D3F239340BB60012384F8353080
:10393000002384F83430236D002B3FD02046984775
:103940003CE0A36C002BE7D1EBE7E36BA3B120468F
:10395000984711E01A6812F4807F09D11A6822F0A2
:1039600010021A60012384F83530002384F83430C3
:10397000E36B0BB120469847636DFBB1636D13F0A9
:10398000010F17D0052384F835302268136823F01F
:1039900001031360019B01330193AB4204D82368F8
:1039A0001B6813F0010FF5D1012384F83530002393
:1039B00084F83430E36C0BB12046984703B0F0BD77
:1039C00000000020B5814E1B406D704700230F2B77
:1039D00000F2E48070B582B060E085685E00032488
:1039E000B44025EA0405CC68B4402C4384604568A3
:1039F00025EA02054C68C4F300129A402A4342604B
:103A00005AE0DC08083450F8246003F007029500FF
:103A10000F22AA4026EA020E0A69AA4042EA0E02D2
:103A200040F824205CE0072200E0002202FA0EF2B7
:103A30002A4302345A4D45F824205A4A14686FEA42
:103A40000C0224EA0C054E6816F4803F01D04CEAC3
:103A50000405544C2560646802EA04054E6816F4B7
:103A6000003F01D04CEA04054E4C6560A46802EAB0
:103A700004054E6816F4801F01D04CEA0405494C39
:103A8000A560E46822404D6815F4001F01D04CEA9F
:103A90000402444CE26001330F2B7DD801229A408E
:103AA0000C6804EA020C32EA0404F4D14C6804F015
:103AB0000304013C012C90D94A6802F00302032A56
:103AC00009D0C4685D000322AA4024EA02048A687F
:103AD000AA402243C2604A6802F00302022A90D040
:103AE00004684FEA430E032202FA0EF224EA0204AB
:103AF0004A6802F0030202FA0EF2224302604A68A8
:103B000012F4403FC7D000220192274A546C44F47B
:103B100080445464526C02F480420192019A9C08E1
:103B2000A51C1F4A52F8255003F003024FEA820EEB
:103B30000F2202FA0EF225EA02051C4A90423FF4D7
:103B400074AF02F5806290421AD002F58062904212
:103B500018D002F58062904216D002F58062904241
:103B600014D002F58062904212D002F58062904239
:103B700010D002F5806290423FF455AF082255E71D
:103B8000012253E7022251E703224FE704224DE7C7
:103B900005224BE7062249E702B070BD704700BF1F
:103BA00000380140003C0140003802400000024063
:103BB0000369194201D001207047002070470AB103
:103BC00081617047090481617047000008B5054BA9
:103BD0005B69034200D108BD024B5861FEF72EFD20
:103BE000F9E700BF003C0140002800F0E08170B51B
:103BF00082B00446036813F0010F3BD09F4B9B68D3
:103C000003F00C03042B2CD09C4B9B6803F00C039B
:103C1000082B21D06368B3F5803F4FD0B3F5A02FB8
:103C200052D0964B1A6822F480321A601A6822F435
:103C300080221A606368002B50D0FFF741F90546D7
:103C40008E4B1B6813F4003F14D1FFF739F9401B6A
:103C50006428F5D90320B1E1884B5B6813F4800F29
:103C6000D8D0864B1B6813F4003F03D06368002B49
:103C700000F09F81236813F0020F54D07F4B9B68A4
:103C800013F00C0F3ED07D4B9B6803F00C03082B08
:103C900033D0E368002B68D0794B01221A60FFF71C
:103CA0000FF90546754B1B6813F0020F54D1FFF74F
:103CB00007F9401B0228F5D903207FE16F4A1368FA
:103CC00043F480331360B5E76C4B1A6842F48022EA
:103CD0001A601A6842F480321A60ABE7FFF7F0F816
:103CE0000546664B1B6813F4003FC3D0FFF7E8F8A6
:103CF000401B6428F5D9032060E1604B5B6813F436
:103D0000800FC6D15D4B1B6813F0020F03D0E36830
:103D1000012B40F05081594A136823F0F8032169C0
:103D200043EAC1031360236813F0080F42D06369AC
:103D30006BB3534B0122C3F8802EFFF7C1F8054641
:103D40004E4B5B6F13F0020F34D1FFF7B9F8401BF5
:103D50000228F5D9032031E1484A136823F0F8031B
:103D6000216943EAC1031360DDE7454B00221A6075
:103D7000FFF7A6F80546414B1B6813F0020FD2D09F
:103D8000FFF79EF8401B0228F5D9032016E13C4BB3
:103D90000022C3F8802EFFF793F80546374B5B6F80
:103DA00013F0020F06D0FFF78BF8401B0228F5D95D
:103DB000032003E1236813F0040F77D02F4B1B6C13
:103DC00013F0805F33D1002301932C4B1A6C42F027
:103DD00080521A641B6C03F080530193019B0125F0
:103DE000284B1B6813F4807F23D0A368012B34D0A9
:103DF000052B38D0214B1A6F22F001021A671A6F77
:103E000022F004021A67A368002B3DD0FFF758F890
:103E100006461A4B1B6F13F0020F46D1FFF750F8FE
:103E2000801B41F288339842F3D90320C6E0002575
:103E3000D6E7144A136843F480731360FFF740F821
:103E40000646104B1B6813F4807FCED1FFF738F87D
:103E5000801B0228F5D90320B0E0084A136F43F015
:103E600001031367CFE7054B1A6F42F004021A678C
:103E70001A6F42F001021A67C5E700BF003802401E
:103E80000000474200700040FFF71AF80646524B08
:103E90001B6F13F0020F08D0FFF712F8801B41F2DE
:103EA00088339842F3D9032088E0EDB9A369002B49
:103EB00000F08380484A926802F00C02082A51D030
:103EC000022B17D0454B00221A66FEF7F9FF044675
:103ED000414B1B6813F0007F42D0FEF7F1FF001B3F
:103EE0000228F5D9032069E03B4A136C23F0805384
:103EF0001364DBE7394B00221A66FEF7E1FF054643
:103F0000354B1B6813F0007F06D0FEF7D9FF401B2E
:103F10000228F5D9032051E0E369226A1343626A5B
:103F200043EA8213A26A5208013A43EA0243E26A70
:103F300043EA0263284A5360284B01221A66FEF7BF
:103F4000BFFF0446244B1B6813F0007F06D1FEF729
:103F5000B7FF001B0228F5D903202FE000202DE039
:103F600000202BE0012B2BD01B4B5B6803F480015E
:103F7000E269914226D103F03F02216A8A4223D1AD
:103F8000616A47F6C0721A40B2EB811F1ED103F47A
:103F90004031A26A5208013AB1EB024F18D103F046
:103FA0007063E26AB3EB026F14D1002006E00120D7
:103FB0007047012002E0012000E0002002B070BD47
:103FC0000120FBE70120F9E70120F7E70120F5E7F1
:103FD0000120F3E70120F1E70038024000004742EA
:103FE00008B5314B9B6803F00C03042B57D0082B0A
:103FF00057D12D4B5A6802F03F025B6813F4800FD3
:104000002AD0294B5968C1F3881C4FEA4C11B1EBF7
:104010000C006EEB0E0E4FEA8E1343EA90638101A3
:10402000091A63EB0E03DB0043EA5173C90011EB7D
:104030000C0C43F10003590200234FEA4C2041EAE3
:10404000DC51FDF73FF8184B5B68C3F301430133C4
:104050005B00B0FBF3F025E0134B5968C1F3881CFB
:104060004FEA4C11B1EB0C006EEB0E0E4FEA8E13C3
:1040700043EA90638101091A63EB0E03DB0043EA14
:104080005173C90011EB0C0C43F10003990200239A
:104090004FEA8C2041EA9C51FDF714F8D3E703481E
:1040A00000E0034808BD00BF0038024000127A005B
:1040B0000024F400002800F09B8070B50D460446F3
:1040C0004F4B1B6803F007038B4208D2CBB24C4A1C
:1040D0001370136803F007038B4240F08B80236852
:1040E00013F0020F17D013F0040F04D0454A936861
:1040F00043F4E0539360236813F0080F04D0414A5F
:10410000936843F4604393603E4A936823F0F0035E
:10411000A1680B439360236813F0010F32D06368EA
:10412000012B21D09A1E012A25D9364A126812F095
:10413000020F61D033498A6822F0030213438B6077
:10414000FEF7BEFE06462F4B9B6803F00C03626829
:10415000B3EB820F16D0FEF7B3FE801B41F288331B
:104160009842F0D9032042E0264A126812F4003F38
:10417000E0D101203BE0234A126812F0007FD9D140
:10418000012034E01E4B1B6803F00703AB4207D944
:10419000EAB21B4B1A701B6803F00703AB422DD128
:1041A000236813F0040F06D0164A936823F4E053F3
:1041B000E1680B439360236813F0080F07D0114A9E
:1041C000936823F46043216943EAC1039360FFF7D6
:1041D00007FF0C4B9B68C3F303130B4AD35CD84017
:1041E0000A4B18600A4B1868FEF76EFC002070BD81
:1041F000012070470120FAE70120F8E70120F6E7E7
:10420000003C02400038024008A8000800000020DE
:1042100008000020014B1868704700BF0000002014
:1042200008B5FFF7F7FF044B9B68C3F38223034AEB
:10423000D35CD84008BD00BF0038024018A8000871
:1042400008B5FFF7E7FF044B9B68C3F34233034A0B
:10425000D35CD84008BD00BF0038024018A8000851
:104260000F2303600B4B9A6802F0030242609A68C6
:1042700002F0F00282609A6802F4E052C2609B6829
:10428000DB0803F4E0530361034B1B6803F00703EF
:104290000B60704700380240003C0240836B1A6894
:1042A000D36B43F48073D3637047000070B582B062
:1042B000044600230193006802F0CAF9054610B1D4
:1042C000284602B070BD206802F0D5F938B9012344
:1042D000A364A36C012B0BD02E46284614E00023C8
:1042E000A364206802F0B4F90028F2D00546E7E79D
:1042F0000021206802F0D6F90028EDD04FF080555B
:10430000DEE7019B01330193019A4FF6FE739A4257
:1043100013D896B90021206802F0C4F9E0B9124917
:10432000206802F0D7F90646C0B90021206801F0E4
:10433000D6FFC30FE5D01E46E3E7019A4FF6FE73A2
:104340009A420ED810F0804302D001236364B7E78D
:10435000002262641D46B3E70546B1E74FF0805581
:10436000AEE74FF08075ABE7000010C1F0B589B043
:1043700004460F46FEF7A4FD064600230093019372
:104380000821206802F0BAF8054610B1284609B0A5
:10439000F0BD216D0904206802F084F9054600286B
:1043A000F4D14FF0FF330293082303933023049397
:1043B00002230593002306930123079302A9206893
:1043C00002F08AF8206802F0B6F9054658B1DDE738
:1043D00001F061FF4DF825000135FEF771FD831BEB
:1043E000B3F1FF3F3FD02068436B13F02A0F07D192
:1043F000436B13F4001FEBD1436B13F4005FECD15C
:10440000436B13F0080F25D1436B13F0020F24D137
:10441000456B15F0200523D140F23A538363019A8E
:10442000130203F47F0343EA0263110A01F47F419C
:104430000B4343EA12633B60009A130203F47F03C9
:1044400043EA0263110A01F47F410B4343EA12631A
:104450007B609BE70825856398E70225856395E7E0
:104460002025856392E74FF000458FE710B582B0B5
:104470000446002100910191006801F030FF10F026
:10448000007F13D169462046FFF770FF80B9019B7A
:1044900013F4802F0ED0216D0904206802F002F978
:1044A00030B90221206802F02EF901E04FF40060DB
:1044B00002B010BD4FF08060FAE710B582B004463C
:1044C000002100910191006801F009FF10F0007FC8
:1044D00013D169462046FFF749FF80B9019B13F4C9
:1044E000803F0ED0216D0904206802F0DBF830B95E
:1044F0000021206802F007F901E04FF4006002B0EB
:1045000010BD4FF08060FAE770B581B104460E46E9
:10451000016D0904006802F068F9054608B12846F3
:1045200070BD0021206801F0DAFE3060F7E74FF03F
:104530000065F4E72DE9F04387B0044691B11646D3
:104540001F460A4690F83450EDB2012D7FD100236A
:104550008363F019E36D98420AD9A36B43F00073AB
:10456000A36375E0836B43F00063836301256FE011
:10457000032384F8343023680021D9622068C36B98
:1045800043F44A7343F00203C363236C3348D86394
:10459000236C3348D864236C1965236C9960206CB4
:1045A00001680B6823F0C003806803430B60216837
:1045B0004FEA47294FEA99038031206CFFF784F8CE
:1045C000804668BB274B0122C3F88C25636C93425D
:1045D00000D076024FF0FF330093CDF80490902383
:1045E0000293022303930023049301230593694656
:1045F000206801F071FF012F22D982232363314605
:10460000206801F0ABFF38B32368174A9A63A36BA5
:104610001843A063012384F834300023236317E098
:104620002268D36B23F49573D36323680E4A9A638D
:10463000A36B43F08043A363012384F8343007E085
:10464000812323633146206801F070FFDBE70225F8
:10465000284607B0BDE8F0834546F9E7AB470008B8
:104660008D4C000800802542FF054000F0B587B062
:10467000044600293BD01E460F4690F83450EDB258
:10468000012D40F08480002383639319C16D8B4218
:1046900033D8032380F8343003680021D9620068DE
:1046A000C36B43F4067343F00203C363E36B3A48FE
:1046B000D863E36B3948D864E36B1965636C012BED
:1046C00000D05202012E1DD9A02323631146206879
:1046D00001F074FFE8B12368314A9A63A36B184371
:1046E000A063012384F834300023236350E0836BFC
:1046F00043F00063836301254AE0836B43F000735A
:10470000836345E0902323631146206801F03EFF58
:10471000E0E7244B0122C3F88C25E36B40229A602A
:10472000E16B0A68136823F0C00389680B431360C8
:1047300022687602B30880323946E06BFEF7C4FF88
:10474000074698B12268D36B23F4067323F0020363
:10475000D3632368124A9A63A36B43F08043A36335
:10476000012384F834300023236311E04FF0FF333A
:104770000093019690230293002303930493012353
:1047800005936946206801F0A7FE3D4600E002253A
:10479000284607B0F0BD00BF9D4200088D4C0008C0
:1047A000FF05400000802542704710B5846B236BE5
:1047B000822B11D02268D36A23F00803D3622368C6
:1047C00040F23A529A63012384F834300023236381
:1047D000204602F05BF810BD206801F007FF034699
:1047E0000028E7D0A26B1343A3632046FFF7DCFF4A
:1047F000E0E70000436E9B0F0B70436EC3F38363CF
:104800004B7090F8673003F003038B7090F86630BC
:10481000CB7090F865300B7190F864304B71836EFB
:104820001B0DCB80B0F86A3003F00F030B72836E60
:10483000C3F3C0334B72836EC3F380338B72836ECA
:10484000C3F34033CB72836EC3F300330B73002387
:104850004B73436C002B40F08680826E40F6FC73F5
:1048600003EA8203C26E43EA92730B61C36EC3F321
:10487000C2630B7590F86F3003F007034B75C36E7E
:10488000C3F342538B75C36EC3F38243CB75C36EC0
:10489000C3F3C2330B760B69013343650A7E02F022
:1048A00007020232934043650A7A02F00F0C01229C
:1048B00002FA0CF28265520A02FB03F3C3654FF45D
:1048C00000730366C36EC3F380334B76C36EC3F3CA
:1048D000C6138B76C36E03F07F03CB76036FDB0FBB
:1048E0000B77036FC3F341734B77036FC3F382639B
:1048F0008B77036FC3F38353CB77036FC3F34053BB
:1049000081F82030002381F82130B0F8722002F0C5
:10491000010281F82220026FC2F3C03281F8232005
:10492000026FC2F3803281F82420026FC2F340325A
:1049300081F82520026FC2F3003281F82620026F31
:10494000C2F3812281F82720026FC2F3012281F88D
:104950002820026FC2F3460281F82920012281F843
:104960002A2018467047012B11D1836E1B0403F4D3
:104970007C13B0F86E2013430B610B6901339B026B
:104980004365C3654FF40073836503669AE7036864
:10499000054A9A63836B43F080538363012380F855
:1049A00034301846704700BFFF05400070B590B026
:1049B00004460123ADF81230006801F077FC0028AE
:1049C0006CD0636C032B45D1636C032B5DD1636C9E
:1049D000032B1DD0BDF8121021650904206801F0D9
:1049E000D7FE054600285BD10021206801F077FC46
:1049F00060660421206801F072FCA066082120682E
:104A000001F06DFCE0660C21206801F068FC206775
:104A10000421206801F063FC000DE06405A9204634
:104A2000FFF7E8FE00283ED1226D12040023206823
:104A300001F0F6FD054698BB234653F8106B93E84A
:104A400007008DE80700043494E80E00304601F0BA
:104A500009FC25E0206801F086FE054600BB002128
:104A6000206801F03CFC60670421206801F037FCFD
:104A7000A0670821206801F032FCE0670C21206863
:104A800001F02DFCC4F880009EE70DF112012068B2
:104A900001F093FE0546002899D001E04FF08065B3
:104AA000284610B070BD4FF08055F9E770B58AB058
:104AB00004460023049305930693079308937623F3
:104AC00009930AAB13E907008DE8070004AB0ECB8E
:104AD000206801F0C7FB18B1012528460AB070BD57
:104AE0000546184E0023C6F8A030206801F0D6FB1A
:104AF0000123C6F8A0302046FFF7D8FB30B10125CE
:104B000084F83450A36B0343A363E6E72046FFF722
:104B10004DFF30B1012584F83450A36B0343A363E8
:104B2000DBE74FF40071206801F0E8FC0028D4D0E6
:104B3000236805499963A36B0343A363012584F8A4
:104B40003450CAE700802542FF054000A8B110B5E7
:104B5000044690F8343063B1032384F8343020469F
:104B6000FFF7A4FF58B9A0632063012384F8343011
:104B700010BD0377FDF706FEEEE701207047012028
:104B8000F6E7436C0B60836C4B60C36C8B60036D0A
:104B9000CB60436D0B61836D4B61C36D8B61036EA5
:104BA000CB6100207047000030B58BB004460D4645
:104BB000032380F83430436C032B1CD0B1F5805FA5
:104BC00008D0B1F5006F0AD079B1836B43F0006370
:104BD000836314E0836B43F0805383630FE0FFF73C
:104BE00045FCA36B0343A36309E0FFF766FCA36BDB
:104BF0000343A36303E0836B43F080538363A36B9E
:104C0000C3B12368174A9A63012584F834504FF4DE
:104C10000071206801F072FC30B12368114999637A
:104C2000A36B0343A3630125012384F83430284692
:104C30000BB030BD63680493A3680593E3680693E3
:104C4000079563690893A36909930AAB13E9070001
:104C50008DE8070004AB0ECB206801F003FB0025B4
:104C6000D5E700BFFF05400010B582B00446002321
:104C7000019301A9FFF748FC10B1A36B0343A363A1
:104C80000198C0F3432002B010BD000010B5846B42
:104C9000FEF79AFE02280AD0236C5B6DE26B526D20
:104CA000012B05D0012A03D02046FFF77DFD10BD62
:104CB00023680F4A9A632268D36B23F49D73D363EE
:104CC000A36B43F08043A3632046FFF7CDFF053875
:104CD000012805D9012384F8343000232363E3E756
:104CE000206801F083FCA36B0343A363F2E700BFDA
:104CF000FF0540002DE9F04782B00546884617467B
:104D00001E46FEF7DDF80A9B1B1A03EB0609FEF7A9
:104D1000D7F882462B4B1B68C3F3CB3309FB03F355
:104D200001932B689C6838EA04030CBF4FF0010C18
:104D30004FF0000CBC4540D0B6F1FF3FF1D0FEF77C
:104D4000BFF8A0EB0A0048450AD2B9F1000F07D01E
:104D5000019A02B14A46019B013B01939146E0E76B
:104D60002A68536823F0E00353606B68B3F5827FD1
:104D70000BD0AB6AB3F5005F14D0012385F8513036
:104D8000002385F85030032018E0AB68B3F5004FDE
:104D900002D0B3F5806FECD12A68136823F040038A
:104DA0001360E6E72A68136823F4005313602A6847
:104DB000136843F400531360DFE7002002B0BDE83E
:104DC000F08700BF0000002010B584B00446164BE9
:104DD0001868164BA3FB0030400D4FF47A7303FBA9
:104DE00000F003906368B3F5827F0BD0039BBBB1E7
:104DF000039B013B039323689B6813F0800FF5D15D
:104E000000200EE000920B46002280212046FFF792
:104E100071FF30B1636D43F020036365032000E050
:104E2000002004B010BD00BF00000020819F5E166E
:104E300000285AD010B50446436A33B94368B3F525
:104E4000827F05D00023C36102E000230361436138
:104E50000023A36294F85130002B40D0022384F841
:104E600051302268136823F040031360636803F431
:104E70008273A26802F404421343E26802F40062FF
:104E80001343226902F002021343626902F0010235
:104E90001343A26902F400721343E26902F038027C
:104EA0001343226A02F080021343A26A02F4005202
:104EB000216813430B60638B03F00403626A02F002
:104EC0001002216813434B602268D36923F4006306
:104ED000D36100206065012384F8513010BD84F84F
:104EE00050302046FDF702FDB8E7012070472DE95C
:104EF000F04383B01F460A9D90F85030012B00F01C
:104F00001081044688469146012380F85030FDF711
:104F1000D7FF064694F85130DBB26268012B0AD005
:104F2000B2F5827F40F0E380A268002A40F0E98079
:104F3000042B40F0E880B8F1000F00F0E680B9F1F2
:104F4000000F00F0E480002F00F0E38094F851306F
:104F5000DBB2042B02D0052384F8513000236365B3
:104F6000C4F83890E787A787C4F83080E786A7861B
:104F70002364636423681A6812F0400F03D11A682F
:104F800042F040021A60E368B3F5006F11D0636825
:104F90000BB1012F0BD1226B236812781A73236B8C
:104FA00001332363E38E9BB2013B9BB2E38601276F
:104FB0006BE063680BB1012F0BD1226B2368128861
:104FC000DA60236B02332363E38E9BB2013B9BB217
:104FD000E38601271CE023689A6812F0010F0ED0C7
:104FE000E28F92B25AB1DA68A36B1A80A36B0233D4
:104FF000A363E38F9BB2013B9BB2E3870127FDF7DD
:105000005FFF801BA84203D3B5F1FF3F40F08380D0
:10501000E38E9BB21BB9E38F9BB2002B53D0236866
:105020009A6812F0020FD6D0E28E92B2002AD2D045
:10503000002FD0D0226B1288DA60236B02332363F7
:10504000E38E9BB2013B9BB2E3860027C3E7236854
:105050009A6812F0010F0ED0E28F92B25AB1DA685C
:10506000A36B1A70A36B0133A363E38F9BB2013B65
:105070009BB2E3870127FDF723FF831BAB4202D3DB
:10508000B5F1FF3F49D1002D49D0E38E9BB213B952
:10509000E38F9BB2BBB123689A6812F0020FD6D09F
:1050A000E28E92B2002AD2D0002FD0D0226B12789A
:1050B0001A73236B01332363E38E9BB2013B9BB2D4
:1050C000E3860027C3E7324629462046FFF77CFEE9
:1050D00048B9A36863B901932368DA6801929B68B1
:1050E0000193019B04E020236365012000E002207E
:1050F000012384F85130002384F8503003B0BDE818
:10510000F0830220F4E70220F2E70120F0E701201B
:10511000EEE70120ECE70320EAE70320E8E70320BD
:10512000E6E70220EAE7000030B4036A23F0010357
:105130000362036A4268846924F073040D682C4397
:1051400023F0020C8B6843EA0C03104DA84203D0F5
:1051500005F58065A84205D123F00803CD682B43EF
:1051600023F00403094DA84203D005F58065A84249
:1051700005D122F440724D692A438D692A43426069
:1051800084614A684263036230BC7047000001409A
:1051900030B4036A23F480730362036A4268C4690B
:1051A00024F0730C0C6844EA0C0523F400738C683B
:1051B00043EA0423114CA04203D004F58064A042CA
:1051C00006D123F40063CC6843EA042323F480630C
:1051D0000A4CA04203D004F58064A04207D122F417
:1051E00040524C6942EA04128C6942EA041242605D
:1051F000C5614A68C263036230BC70470000014069
:1052000030B4036A23F480530362036A4468C269BA
:1052100022F4E6420D6842EA052223F400538D6829
:1052200043EA0533094DA84203D005F58065A8423D
:1052300004D124F480444D6944EA85144460C26179
:105240004A680264036230BC704700BF000001403E
:105250007047000090F83D30DBB2012B37D10223BC
:1052600080F83D300268D36843F00103D3600368DF
:10527000194A934220D0B3F1804F1DD0A2F57C4251
:10528000934219D002F58062934215D002F58062F4
:10529000934211D002F5784293420DD002F570523C
:1052A000934209D0A2F59432934205D01A6842F095
:1052B00001021A60002070479A6802F00702062A6D
:1052C00007D01A6842F001021A60002070470120DE
:1052D00070470020704700BF0000014070477047D2
:1052E0007047704710B5044603681A6912F0020F40
:1052F00011D0DA6812F0020F0DD06FF002021A61BD
:105300000123037703689B6913F0030F70D0FFF745
:10531000E6FF0023237723681A6912F0040F12D0E6
:10532000DA6812F0040F0ED06FF004021A61022343
:10533000237723689B6913F4407F5FD02046FFF7F3
:10534000CEFF0023237723681A6912F0080F12D0CA
:10535000DA6812F0080F0ED06FF008021A61042309
:1053600023772368DB6913F0030F4ED02046FFF745
:10537000B6FF0023237723681A6912F0100F12D0AA
:10538000DA6812F0100F0ED06FF010021A610823C5
:1053900023772368DB6913F4407F3DD02046FFF775
:1053A0009EFF0023237723681A6912F0010F03D0B0
:1053B000DA6812F0010F36D123681A6912F0800FF3
:1053C00003D0DA6812F0800F34D123681A6912F022
:1053D000400F03D0DA6812F0400F32D123681A6907
:1053E00012F0200F03D0DA6812F0200F30D110BD78
:1053F000FFF774FF2046FFF773FF8AE72046FFF7A9
:105400006DFF2046FFF76CFF9BE72046FFF766FF26
:105410002046FFF765FFACE72046FFF75FFF204619
:10542000FFF75EFFBDE76FF001021A612046FDF74E
:1054300015F9C1E76FF080021A61204600F04BFABF
:10544000C3E76FF040021A612046FFF74AFFC5E745
:105450006FF020021A61204600F03CFAC7E7000016
:105460000368304A904212D0B0F1804F0FD0A2F5BD
:105470007C4290420BD002F58062904207D002F548
:105480008062904203D002F57842904203D123F02B
:1054900070034A681343234A90422AD0B0F1804FE8
:1054A00027D0A2F57C42904223D002F58062904240
:1054B0001FD002F5806290421BD002F578429042E4
:1054C00017D002F57052904213D002F580629042DC
:1054D0000FD002F5806290420BD0A2F59832904234
:1054E00007D002F58062904203D002F580629042BC
:1054F00003D123F44073CA68134323F080034A693D
:10550000134303608B68C3620B688362054B984248
:1055100003D003F58063984201D10B690363012333
:10552000436170470000014040B310B5044690F855
:105530003D30F3B1022384F83D30214651F8040B8D
:10554000FFF78EFF012384F8463084F83E3084F85C
:105550003F3084F8403084F8413084F8423084F899
:10556000433084F8443084F8453084F83D300020DE
:1055700010BD80F83C30FFF76BFEDBE70120704781
:1055800040B310B5044690F83D30F3B1022384F8DF
:105590003D30214651F8040BFFF762FF012384F8E8
:1055A000463084F83E3084F83F3084F8403084F848
:1055B000413084F8423084F8433084F8443084F831
:1055C000453084F83D30002010BD80F83C30FDF7B8
:1055D000ADFBDBE70120704730B4036A23F0100312
:1055E0000362036A4468826922F4E6420D6842EA73
:1055F000052223F020038D6843EA0513114DA842CC
:1056000003D005F58065A84206D123F08003CD685C
:1056100043EA051323F040030A4DA84203D005F5E1
:105620008065A84207D124F440644D6944EA8504AA
:105630008D6944EA8504446082614A68826303623A
:1056400030BC70470000014038B590F83C30012B69
:1056500066D004460D46012380F83C300C2A5AD807
:10566000DFE802F0075959591B595959305959590E
:1056700044000068FFF758FD2268936943F008036F
:1056800093612268936923F004039361226893690C
:1056900029690B43936100203EE00068FFF79CFFFF
:1056A0002268936943F4006393612268936923F449
:1056B0008063936122689369296943EA01239361B6
:1056C000002029E00068FFF763FD2268D36943F0FA
:1056D0000803D3612268D36923F00403D3612268ED
:1056E000D36929690B43D361002015E00068FFF7F7
:1056F00087FD2268D36943F40063D3612268D369CC
:1057000023F48063D3612268D369296943EA0123C2
:10571000D361002000E00120002384F83C3038BD34
:105720000220FCE701F01F01012303FA01FC036AD8
:1057300023EA0C030362036A02FA01F10B430362DA
:105740007047000010B504460846002942D194F87D
:105750003E30DBB2013B18BF0123002B6ED1002885
:1057600051D1022384F83E30012201462068FFF720
:10577000D9FF2368334A934203D002F580629342F3
:1057800003D15A6C42F400425A6423682D4A934272
:1057900049D0B3F1804F46D0A2F57C42934242D02B
:1057A00002F5806293423ED002F5806293423AD085
:1057B00002F57842934236D002F57052934232D0CD
:1057C000A2F5943293422ED01A6842F001021A6078
:1057D000002032E0042908D008290DD094F8413087
:1057E000DBB2013B18BF0123B7E794F83F30DBB2CF
:1057F000013B18BF0123B0E794F84030DBB2013B16
:1058000018BF0123A9E7042805D0082807D00223E0
:1058100084F84130A8E7022384F83F30A4E702234C
:1058200084F84030A0E79A6802F00702062A07D001
:105830001A6842F001021A60002010BD0120FCE746
:105840000020FAE70000014090F83C30012B3DD0E9
:1058500010B4012380F83C30022380F83D30036807
:105860005A689C6822F0700C0A6842EA0C025A607E
:105870000368174A93421AD0B3F1804F17D0A2F5AC
:105880007C42934213D002F5806293420FD002F51E
:10589000806293420BD002F57842934207D002F522
:1058A0007052934203D0A2F59432934204D124F073
:1058B00080044A6814439C60012380F83D30002333
:1058C00080F83C3018465DF8044B70470220704762
:1058D0000000014070477047026802F10C0353E872
:1058E000003F23F0C0030C3242E800310029F3D11D
:1058F000202380F83D307047026802F10C0353E822
:10590000003F23F490730C3242E800310029F3D1B8
:10591000026802F1140353E8003F23F0010314323C
:1059200042E800310029F3D1036B012B05D020237D
:1059300080F83E30002303637047026802F10C03D5
:1059400053E8003F23F010030C3242E800310029F5
:10595000F3D1ECE790F83D30DBB2212B01D00220EF
:1059600070478368B3F5805F17D0036A5A1C0262E0
:105970001A7803685A60C38C9BB2013B9BB2C38404
:105980004BB90268D36823F08003D3600268D36800
:1059900043F04003D360002070470369002BE4D13B
:1059A000036A1B880268C3F308035360036A023367
:1059B0000362E0E738B504460268136923F44053F4
:1059C000C1680B431361836802691343426913433F
:1059D000C2691A430168CB6823F4164323F00C0311
:1059E0001343CB600268536923F4407381690B430E
:1059F00053610368314A934206D002F580629342B4
:105A000002D0FEF70DFC01E0FEF71AFCE369B3F5E6
:105A1000004F29D00021031849411B1841F1000112
:105A2000C90041EA5371DB00181863684FEA83022A
:105A30004FEA937341F10001FBF744FB204DA5FBB6
:105A400000325109642303FB11031B013233A5FB10
:105A500003235B0903F0F00202EB011203F00F03D2
:105A6000216813448B6038BD0023021843EB030107
:105A7000121841F10001C90041EA5271D200101818
:105A800041F10001626892185B41FBF71BFB0C4D72
:105A9000A5FB00325109642303FB1103DB00323301
:105AA000A5FB03235B095A0002F4F87202EB011212
:105AB00003F00703216813448B60D4E70010014012
:105AC0001F85EB5158B310B5044690F83D300BB329
:105AD000242384F83D302268D36823F40053D36034
:105AE0002046FFF767FF2268136923F49043136190
